{
	"contracts/FabricaContract.sol": {
		"FabricaContract": {
			"abi": [
				{
					"anonymous": false,
					"inputs": [
						{
							"indexed": false,
							"internalType": "uint256",
							"name": "ArrayProductoId",
							"type": "uint256"
						},
						{
							"indexed": false,
							"internalType": "string",
							"name": "nombre",
							"type": "string"
						},
						{
							"indexed": false,
							"internalType": "uint256",
							"name": "id",
							"type": "uint256"
						}
					],
					"name": "NuevoProducto",
					"type": "event"
				},
				{
					"inputs": [
						{
							"internalType": "string",
							"name": "_nombre",
							"type": "string"
						}
					],
					"name": "crearProductoAleatorio",
					"outputs": [],
					"stateMutability": "nonpayable",
					"type": "function"
				},
				{
					"inputs": [
						{
							"internalType": "address",
							"name": "_propietario",
							"type": "address"
						}
					],
					"name": "getProductosPorPropietario",
					"outputs": [
						{
							"internalType": "uint256[]",
							"name": "",
							"type": "uint256[]"
						}
					],
					"stateMutability": "view",
					"type": "function"
				},
				{
					"inputs": [
						{
							"internalType": "uint256",
							"name": "",
							"type": "uint256"
						}
					],
					"name": "productos",
					"outputs": [
						{
							"internalType": "string",
							"name": "nombre",
							"type": "string"
						},
						{
							"internalType": "uint256",
							"name": "id",
							"type": "uint256"
						}
					],
					"stateMutability": "view",
					"type": "function"
				}
			],
			"devdoc": {
				"kind": "dev",
				"methods": {},
				"version": 1
			},
			"evm": {
				"assembly": "    /* \"contracts/FabricaContract.sol\":60:1915  contract FabricaContract {... */\n  mstore(0x40, 0x80)\n    /* \"contracts/FabricaContract.sol\":108:110  16 */\n  0x10\n    /* \"contracts/FabricaContract.sol\":92:110  uint idDigits = 16 */\n  0x00\n  sstore\n    /* \"contracts/FabricaContract.sol\":140:148  idDigits */\n  sload(0x00)\n    /* \"contracts/FabricaContract.sol\":134:136  10 */\n  0x0a\n    /* \"contracts/FabricaContract.sol\":134:148  10 ** idDigits */\n  tag_1\n  swap2\n  swap1\n  tag_2\n  jump\t// in\ntag_1:\n    /* \"contracts/FabricaContract.sol\":117:148  uint idModulus = 10 ** idDigits */\n  0x01\n  sstore\n    /* \"contracts/FabricaContract.sol\":60:1915  contract FabricaContract {... */\n  callvalue\n  dup1\n  iszero\n  tag_3\n  jumpi\n  0x00\n  dup1\n  revert\ntag_3:\n  pop\n  jump(tag_4)\n    /* \"#utility.yul\":7:187   */\ntag_5:\n    /* \"#utility.yul\":55:132   */\n  0x4e487b7100000000000000000000000000000000000000000000000000000000\n    /* \"#utility.yul\":52:53   */\n  0x00\n    /* \"#utility.yul\":45:133   */\n  mstore\n    /* \"#utility.yul\":152:156   */\n  0x11\n    /* \"#utility.yul\":149:150   */\n  0x04\n    /* \"#utility.yul\":142:157   */\n  mstore\n    /* \"#utility.yul\":176:180   */\n  0x24\n    /* \"#utility.yul\":173:174   */\n  0x00\n    /* \"#utility.yul\":166:181   */\n  revert\n    /* \"#utility.yul\":193:295   */\ntag_6:\n    /* \"#utility.yul\":235:243   */\n  0x00\n    /* \"#utility.yul\":282:287   */\n  dup2\n    /* \"#utility.yul\":279:280   */\n  0x01\n    /* \"#utility.yul\":275:288   */\n  shr\n    /* \"#utility.yul\":254:288   */\n  swap1\n  pop\n    /* \"#utility.yul\":193:295   */\n  swap2\n  swap1\n  pop\n  jump\t// out\n    /* \"#utility.yul\":301:1149   */\ntag_7:\n    /* \"#utility.yul\":362:367   */\n  0x00\n    /* \"#utility.yul\":369:373   */\n  dup1\n    /* \"#utility.yul\":393:399   */\n  dup3\n    /* \"#utility.yul\":384:399   */\n  swap2\n  pop\n    /* \"#utility.yul\":417:422   */\n  dup4\n    /* \"#utility.yul\":408:422   */\n  swap1\n  pop\n    /* \"#utility.yul\":431:1143   */\ntag_14:\n    /* \"#utility.yul\":452:453   */\n  0x01\n    /* \"#utility.yul\":442:450   */\n  dup6\n    /* \"#utility.yul\":439:454   */\n  gt\n    /* \"#utility.yul\":431:1143   */\n  iszero\n  tag_16\n  jumpi\n    /* \"#utility.yul\":547:551   */\n  dup1\n    /* \"#utility.yul\":542:545   */\n  dup7\n    /* \"#utility.yul\":538:552   */\n  div\n    /* \"#utility.yul\":532:536   */\n  dup2\n    /* \"#utility.yul\":529:553   */\n  gt\n    /* \"#utility.yul\":526:576   */\n  iszero\n  tag_17\n  jumpi\n    /* \"#utility.yul\":556:574   */\n  tag_18\n  tag_5\n  jump\t// in\ntag_18:\n    /* \"#utility.yul\":526:576   */\ntag_17:\n    /* \"#utility.yul\":606:607   */\n  0x01\n    /* \"#utility.yul\":596:604   */\n  dup6\n    /* \"#utility.yul\":592:608   */\n  and\n    /* \"#utility.yul\":589:1040   */\n  iszero\n  tag_19\n  jumpi\n    /* \"#utility.yul\":1021:1025   */\n  dup1\n    /* \"#utility.yul\":1014:1019   */\n  dup3\n    /* \"#utility.yul\":1010:1026   */\n  mul\n    /* \"#utility.yul\":1001:1026   */\n  swap2\n  pop\n    /* \"#utility.yul\":589:1040   */\ntag_19:\n    /* \"#utility.yul\":1071:1075   */\n  dup1\n    /* \"#utility.yul\":1065:1069   */\n  dup2\n    /* \"#utility.yul\":1061:1076   */\n  mul\n    /* \"#utility.yul\":1053:1076   */\n  swap1\n  pop\n    /* \"#utility.yul\":1101:1133   */\n  tag_20\n    /* \"#utility.yul\":1124:1132   */\n  dup6\n    /* \"#utility.yul\":1101:1133   */\n  tag_6\n  jump\t// in\ntag_20:\n    /* \"#utility.yul\":1089:1133   */\n  swap5\n  pop\n    /* \"#utility.yul\":431:1143   */\n  jump(tag_14)\ntag_16:\n    /* \"#utility.yul\":301:1149   */\n  swap5\n  pop\n  swap5\n  swap3\n  pop\n  pop\n  pop\n  jump\t// out\n    /* \"#utility.yul\":1155:2228   */\ntag_8:\n    /* \"#utility.yul\":1209:1214   */\n  0x00\n    /* \"#utility.yul\":1400:1408   */\n  dup3\n    /* \"#utility.yul\":1390:1430   */\n  tag_22\n  jumpi\n    /* \"#utility.yul\":1421:1422   */\n  0x01\n    /* \"#utility.yul\":1412:1422   */\n  swap1\n  pop\n    /* \"#utility.yul\":1423:1428   */\n  jump(tag_21)\n    /* \"#utility.yul\":1390:1430   */\ntag_22:\n    /* \"#utility.yul\":1449:1453   */\n  dup2\n    /* \"#utility.yul\":1439:1475   */\n  tag_23\n  jumpi\n    /* \"#utility.yul\":1466:1467   */\n  0x00\n    /* \"#utility.yul\":1457:1467   */\n  swap1\n  pop\n    /* \"#utility.yul\":1468:1473   */\n  jump(tag_21)\n    /* \"#utility.yul\":1439:1475   */\ntag_23:\n    /* \"#utility.yul\":1535:1539   */\n  dup2\n    /* \"#utility.yul\":1583:1584   */\n  0x01\n    /* \"#utility.yul\":1578:1605   */\n  dup2\n  eq\n  tag_25\n  jumpi\n    /* \"#utility.yul\":1619:1620   */\n  0x02\n    /* \"#utility.yul\":1614:1805   */\n  dup2\n  eq\n  tag_26\n  jumpi\n    /* \"#utility.yul\":1528:1805   */\n  jump(tag_24)\n    /* \"#utility.yul\":1578:1605   */\ntag_25:\n    /* \"#utility.yul\":1596:1597   */\n  0x01\n    /* \"#utility.yul\":1587:1597   */\n  swap2\n  pop\n    /* \"#utility.yul\":1598:1603   */\n  pop\n  jump(tag_21)\n    /* \"#utility.yul\":1614:1805   */\ntag_26:\n    /* \"#utility.yul\":1659:1662   */\n  0xff\n    /* \"#utility.yul\":1649:1657   */\n  dup5\n    /* \"#utility.yul\":1646:1663   */\n  gt\n    /* \"#utility.yul\":1643:1686   */\n  iszero\n  tag_27\n  jumpi\n    /* \"#utility.yul\":1666:1684   */\n  tag_28\n  tag_5\n  jump\t// in\ntag_28:\n    /* \"#utility.yul\":1643:1686   */\ntag_27:\n    /* \"#utility.yul\":1715:1723   */\n  dup4\n    /* \"#utility.yul\":1712:1713   */\n  0x02\n    /* \"#utility.yul\":1708:1724   */\n  exp\n    /* \"#utility.yul\":1699:1724   */\n  swap2\n  pop\n    /* \"#utility.yul\":1750:1753   */\n  dup5\n    /* \"#utility.yul\":1743:1748   */\n  dup3\n    /* \"#utility.yul\":1740:1754   */\n  gt\n    /* \"#utility.yul\":1737:1777   */\n  iszero\n  tag_29\n  jumpi\n    /* \"#utility.yul\":1757:1775   */\n  tag_30\n  tag_5\n  jump\t// in\ntag_30:\n    /* \"#utility.yul\":1737:1777   */\ntag_29:\n    /* \"#utility.yul\":1790:1795   */\n  pop\n  jump(tag_21)\n    /* \"#utility.yul\":1528:1805   */\ntag_24:\n  pop\n    /* \"#utility.yul\":1914:1916   */\n  0x20\n    /* \"#utility.yul\":1904:1912   */\n  dup4\n    /* \"#utility.yul\":1901:1917   */\n  lt\n    /* \"#utility.yul\":1895:1898   */\n  0x0133\n    /* \"#utility.yul\":1889:1893   */\n  dup4\n    /* \"#utility.yul\":1886:1899   */\n  lt\n    /* \"#utility.yul\":1882:1918   */\n  and\n    /* \"#utility.yul\":1864:1866   */\n  0x4e\n    /* \"#utility.yul\":1854:1862   */\n  dup5\n    /* \"#utility.yul\":1851:1867   */\n  lt\n    /* \"#utility.yul\":1846:1848   */\n  0x0b\n    /* \"#utility.yul\":1840:1844   */\n  dup5\n    /* \"#utility.yul\":1837:1849   */\n  lt\n    /* \"#utility.yul\":1833:1868   */\n  and\n    /* \"#utility.yul\":1817:1928   */\n  or\n    /* \"#utility.yul\":1814:2060   */\n  iszero\n  tag_31\n  jumpi\n    /* \"#utility.yul\":1970:1978   */\n  dup3\n    /* \"#utility.yul\":1964:1968   */\n  dup3\n    /* \"#utility.yul\":1960:1979   */\n  exp\n    /* \"#utility.yul\":1951:1979   */\n  swap1\n  pop\n    /* \"#utility.yul\":2005:2008   */\n  dup4\n    /* \"#utility.yul\":1998:2003   */\n  dup2\n    /* \"#utility.yul\":1995:2009   */\n  gt\n    /* \"#utility.yul\":1992:2032   */\n  iszero\n  tag_32\n  jumpi\n    /* \"#utility.yul\":2012:2030   */\n  tag_33\n  tag_5\n  jump\t// in\ntag_33:\n    /* \"#utility.yul\":1992:2032   */\ntag_32:\n    /* \"#utility.yul\":2045:2050   */\n  jump(tag_21)\n    /* \"#utility.yul\":1814:2060   */\ntag_31:\n    /* \"#utility.yul\":2085:2127   */\n  tag_34\n    /* \"#utility.yul\":2123:2126   */\n  dup5\n    /* \"#utility.yul\":2113:2121   */\n  dup5\n    /* \"#utility.yul\":2107:2111   */\n  dup5\n    /* \"#utility.yul\":2104:2105   */\n  0x01\n    /* \"#utility.yul\":2085:2127   */\n  tag_7\n  jump\t// in\ntag_34:\n    /* \"#utility.yul\":2070:2127   */\n  swap3\n  pop\n  swap1\n  pop\n    /* \"#utility.yul\":2159:2163   */\n  dup2\n    /* \"#utility.yul\":2154:2157   */\n  dup5\n    /* \"#utility.yul\":2150:2164   */\n  div\n    /* \"#utility.yul\":2143:2148   */\n  dup2\n    /* \"#utility.yul\":2140:2165   */\n  gt\n    /* \"#utility.yul\":2137:2188   */\n  iszero\n  tag_35\n  jumpi\n    /* \"#utility.yul\":2168:2186   */\n  tag_36\n  tag_5\n  jump\t// in\ntag_36:\n    /* \"#utility.yul\":2137:2188   */\ntag_35:\n    /* \"#utility.yul\":2217:2221   */\n  dup2\n    /* \"#utility.yul\":2210:2215   */\n  dup2\n    /* \"#utility.yul\":2206:2222   */\n  mul\n    /* \"#utility.yul\":2197:2222   */\n  swap1\n  pop\n    /* \"#utility.yul\":1155:2228   */\ntag_21:\n  swap4\n  swap3\n  pop\n  pop\n  pop\n  jump\t// out\n    /* \"#utility.yul\":2234:2311   */\ntag_9:\n    /* \"#utility.yul\":2271:2278   */\n  0x00\n    /* \"#utility.yul\":2300:2305   */\n  dup2\n    /* \"#utility.yul\":2289:2305   */\n  swap1\n  pop\n    /* \"#utility.yul\":2234:2311   */\n  swap2\n  swap1\n  pop\n  jump\t// out\n    /* \"#utility.yul\":2317:2602   */\ntag_2:\n    /* \"#utility.yul\":2377:2382   */\n  0x00\n    /* \"#utility.yul\":2401:2424   */\n  tag_39\n    /* \"#utility.yul\":2419:2423   */\n  dup3\n    /* \"#utility.yul\":2401:2424   */\n  tag_9\n  jump\t// in\ntag_39:\n    /* \"#utility.yul\":2393:2424   */\n  swap2\n  pop\n    /* \"#utility.yul\":2445:2472   */\n  tag_40\n    /* \"#utility.yul\":2463:2471   */\n  dup4\n    /* \"#utility.yul\":2445:2472   */\n  tag_9\n  jump\t// in\ntag_40:\n    /* \"#utility.yul\":2433:2472   */\n  swap3\n  pop\n    /* \"#utility.yul\":2491:2595   */\n  tag_41\n    /* \"#utility.yul\":2528:2594   */\n  0xffffffffffffffffffffffffffffffffffffffffffffffffffffffffffffffff\n    /* \"#utility.yul\":2518:2526   */\n  dup5\n    /* \"#utility.yul\":2512:2516   */\n  dup5\n    /* \"#utility.yul\":2491:2595   */\n  tag_8\n  jump\t// in\ntag_41:\n    /* \"#utility.yul\":2482:2595   */\n  swap1\n  pop\n    /* \"#utility.yul\":2317:2602   */\n  swap3\n  swap2\n  pop\n  pop\n  jump\t// out\n    /* \"contracts/FabricaContract.sol\":60:1915  contract FabricaContract {... */\ntag_4:\n  dataSize(sub_0)\n  dup1\n  dataOffset(sub_0)\n  0x00\n  codecopy\n  0x00\n  return\nstop\n\nsub_0: assembly {\n        /* \"contracts/FabricaContract.sol\":60:1915  contract FabricaContract {... */\n      mstore(0x40, 0x80)\n      callvalue\n      dup1\n      iszero\n      tag_1\n      jumpi\n      0x00\n      dup1\n      revert\n    tag_1:\n      pop\n      jumpi(tag_2, lt(calldatasize, 0x04))\n      shr(0xe0, calldataload(0x00))\n      dup1\n      0x72380aea\n      eq\n      tag_3\n      jumpi\n      dup1\n      0x99553636\n      eq\n      tag_4\n      jumpi\n      dup1\n      0xae44a105\n      eq\n      tag_5\n      jumpi\n    tag_2:\n      0x00\n      dup1\n      revert\n        /* \"contracts/FabricaContract.sol\":1403:1910  function getProductosPorPropietario(address _propietario) external view returns (uint[] memory) {... */\n    tag_3:\n      tag_6\n      0x04\n      dup1\n      calldatasize\n      sub\n      dup2\n      add\n      swap1\n      tag_7\n      swap2\n      swap1\n      tag_8\n      jump\t// in\n    tag_7:\n      tag_9\n      jump\t// in\n    tag_6:\n      mload(0x40)\n      tag_10\n      swap2\n      swap1\n      tag_11\n      jump\t// in\n    tag_10:\n      mload(0x40)\n      dup1\n      swap2\n      sub\n      swap1\n      return\n        /* \"contracts/FabricaContract.sol\":231:258  Producto[] public productos */\n    tag_4:\n      tag_12\n      0x04\n      dup1\n      calldatasize\n      sub\n      dup2\n      add\n      swap1\n      tag_13\n      swap2\n      swap1\n      tag_14\n      jump\t// in\n    tag_13:\n      tag_15\n      jump\t// in\n    tag_12:\n      mload(0x40)\n      tag_16\n      swap3\n      swap2\n      swap1\n      tag_17\n      jump\t// in\n    tag_16:\n      mload(0x40)\n      dup1\n      swap2\n      sub\n      swap1\n      return\n        /* \"contracts/FabricaContract.sol\":918:1086  function crearProductoAleatorio(string memory _nombre) public  {... */\n    tag_5:\n      tag_18\n      0x04\n      dup1\n      calldatasize\n      sub\n      dup2\n      add\n      swap1\n      tag_19\n      swap2\n      swap1\n      tag_20\n      jump\t// in\n    tag_19:\n      tag_21\n      jump\t// in\n    tag_18:\n      stop\n        /* \"contracts/FabricaContract.sol\":1403:1910  function getProductosPorPropietario(address _propietario) external view returns (uint[] memory) {... */\n    tag_9:\n        /* \"contracts/FabricaContract.sol\":1484:1497  uint[] memory */\n      0x60\n        /* \"contracts/FabricaContract.sol\":1510:1523  uint contador */\n      0x00\n        /* \"contracts/FabricaContract.sol\":1538:1560  uint cantidadProductos */\n      dup1\n        /* \"contracts/FabricaContract.sol\":1563:1583  propietarioProductos */\n      0x04\n        /* \"contracts/FabricaContract.sol\":1563:1597  propietarioProductos[_propietario] */\n      0x00\n        /* \"contracts/FabricaContract.sol\":1584:1596  _propietario */\n      dup6\n        /* \"contracts/FabricaContract.sol\":1563:1597  propietarioProductos[_propietario] */\n      0xffffffffffffffffffffffffffffffffffffffff\n      and\n      0xffffffffffffffffffffffffffffffffffffffff\n      and\n      dup2\n      mstore\n      0x20\n      add\n      swap1\n      dup2\n      mstore\n      0x20\n      add\n      0x00\n      keccak256\n      sload\n        /* \"contracts/FabricaContract.sol\":1538:1597  uint cantidadProductos = propietarioProductos[_propietario] */\n      swap1\n      pop\n        /* \"contracts/FabricaContract.sol\":1608:1631  uint[] memory resultado */\n      0x00\n        /* \"contracts/FabricaContract.sol\":1645:1662  cantidadProductos */\n      dup2\n        /* \"contracts/FabricaContract.sol\":1634:1663  new uint[](cantidadProductos) */\n      0xffffffffffffffff\n      dup2\n      gt\n      iszero\n      tag_23\n      jumpi\n      tag_24\n      tag_25\n      jump\t// in\n    tag_24:\n    tag_23:\n      mload(0x40)\n      swap1\n      dup1\n      dup3\n      mstore\n      dup1\n      0x20\n      mul\n      0x20\n      add\n      dup3\n      add\n      0x40\n      mstore\n      dup1\n      iszero\n      tag_26\n      jumpi\n      dup2\n      0x20\n      add\n      0x20\n      dup3\n      mul\n      dup1\n      calldatasize\n      dup4\n      calldatacopy\n      dup1\n      dup3\n      add\n      swap2\n      pop\n      pop\n      swap1\n      pop\n    tag_26:\n      pop\n        /* \"contracts/FabricaContract.sol\":1608:1663  uint[] memory resultado = new uint[](cantidadProductos) */\n      swap1\n      pop\n        /* \"contracts/FabricaContract.sol\":1679:1685  uint i */\n      0x00\n        /* \"contracts/FabricaContract.sol\":1674:1876  for (uint i = 0; i < productos.length; i++) {... */\n    tag_27:\n        /* \"contracts/FabricaContract.sol\":1695:1704  productos */\n      0x02\n        /* \"contracts/FabricaContract.sol\":1695:1711  productos.length */\n      dup1\n      sload\n      swap1\n      pop\n        /* \"contracts/FabricaContract.sol\":1691:1692  i */\n      dup2\n        /* \"contracts/FabricaContract.sol\":1691:1711  i < productos.length */\n      lt\n        /* \"contracts/FabricaContract.sol\":1674:1876  for (uint i = 0; i < productos.length; i++) {... */\n      iszero\n      tag_28\n      jumpi\n        /* \"contracts/FabricaContract.sol\":1764:1776  _propietario */\n      dup6\n        /* \"contracts/FabricaContract.sol\":1737:1776  productoAPropietario[i] == _propietario */\n      0xffffffffffffffffffffffffffffffffffffffff\n      and\n        /* \"contracts/FabricaContract.sol\":1737:1757  productoAPropietario */\n      0x03\n        /* \"contracts/FabricaContract.sol\":1737:1760  productoAPropietario[i] */\n      0x00\n        /* \"contracts/FabricaContract.sol\":1758:1759  i */\n      dup4\n        /* \"contracts/FabricaContract.sol\":1737:1760  productoAPropietario[i] */\n      dup2\n      mstore\n      0x20\n      add\n      swap1\n      dup2\n      mstore\n      0x20\n      add\n      0x00\n      keccak256\n      0x00\n      swap1\n      sload\n      swap1\n      0x0100\n      exp\n      swap1\n      div\n      0xffffffffffffffffffffffffffffffffffffffff\n      and\n        /* \"contracts/FabricaContract.sol\":1737:1776  productoAPropietario[i] == _propietario */\n      0xffffffffffffffffffffffffffffffffffffffff\n      and\n      sub\n        /* \"contracts/FabricaContract.sol\":1733:1865  if (productoAPropietario[i] == _propietario) {... */\n      tag_30\n      jumpi\n        /* \"contracts/FabricaContract.sol\":1819:1820  i */\n      dup1\n        /* \"contracts/FabricaContract.sol\":1797:1806  resultado */\n      dup3\n        /* \"contracts/FabricaContract.sol\":1807:1815  contador */\n      dup6\n        /* \"contracts/FabricaContract.sol\":1797:1816  resultado[contador] */\n      dup2\n      mload\n      dup2\n      lt\n      tag_31\n      jumpi\n      tag_32\n      tag_33\n      jump\t// in\n    tag_32:\n    tag_31:\n      0x20\n      mul\n      0x20\n      add\n      add\n        /* \"contracts/FabricaContract.sol\":1797:1820  resultado[contador] = i */\n      dup2\n      dup2\n      mstore\n      pop\n      pop\n        /* \"contracts/FabricaContract.sol\":1839:1849  contador++ */\n      dup4\n      dup1\n      tag_34\n      swap1\n      tag_35\n      jump\t// in\n    tag_34:\n      swap5\n      pop\n      pop\n        /* \"contracts/FabricaContract.sol\":1733:1865  if (productoAPropietario[i] == _propietario) {... */\n    tag_30:\n        /* \"contracts/FabricaContract.sol\":1713:1716  i++ */\n      dup1\n      dup1\n      tag_36\n      swap1\n      tag_35\n      jump\t// in\n    tag_36:\n      swap2\n      pop\n      pop\n        /* \"contracts/FabricaContract.sol\":1674:1876  for (uint i = 0; i < productos.length; i++) {... */\n      jump(tag_27)\n    tag_28:\n      pop\n        /* \"contracts/FabricaContract.sol\":1893:1902  resultado */\n      dup1\n        /* \"contracts/FabricaContract.sol\":1886:1902  return resultado */\n      swap4\n      pop\n      pop\n      pop\n      pop\n        /* \"contracts/FabricaContract.sol\":1403:1910  function getProductosPorPropietario(address _propietario) external view returns (uint[] memory) {... */\n      swap2\n      swap1\n      pop\n      jump\t// out\n        /* \"contracts/FabricaContract.sol\":231:258  Producto[] public productos */\n    tag_15:\n      0x02\n      dup2\n      dup2\n      sload\n      dup2\n      lt\n      tag_37\n      jumpi\n      0x00\n      dup1\n      revert\n    tag_37:\n      swap1\n      0x00\n      mstore\n      keccak256(0x00, 0x20)\n      swap1\n      0x02\n      mul\n      add\n      0x00\n      swap2\n      pop\n      swap1\n      pop\n      dup1\n      0x00\n      add\n      dup1\n      sload\n      tag_39\n      swap1\n      tag_40\n      jump\t// in\n    tag_39:\n      dup1\n      0x1f\n      add\n      0x20\n      dup1\n      swap2\n      div\n      mul\n      0x20\n      add\n      mload(0x40)\n      swap1\n      dup2\n      add\n      0x40\n      mstore\n      dup1\n      swap3\n      swap2\n      swap1\n      dup2\n      dup2\n      mstore\n      0x20\n      add\n      dup3\n      dup1\n      sload\n      tag_41\n      swap1\n      tag_40\n      jump\t// in\n    tag_41:\n      dup1\n      iszero\n      tag_42\n      jumpi\n      dup1\n      0x1f\n      lt\n      tag_43\n      jumpi\n      0x0100\n      dup1\n      dup4\n      sload\n      div\n      mul\n      dup4\n      mstore\n      swap2\n      0x20\n      add\n      swap2\n      jump(tag_42)\n    tag_43:\n      dup3\n      add\n      swap2\n      swap1\n      0x00\n      mstore\n      keccak256(0x00, 0x20)\n      swap1\n    tag_44:\n      dup2\n      sload\n      dup2\n      mstore\n      swap1\n      0x01\n      add\n      swap1\n      0x20\n      add\n      dup1\n      dup4\n      gt\n      tag_44\n      jumpi\n      dup3\n      swap1\n      sub\n      0x1f\n      and\n      dup3\n      add\n      swap2\n    tag_42:\n      pop\n      pop\n      pop\n      pop\n      pop\n      swap1\n      dup1\n      0x01\n      add\n      sload\n      swap1\n      pop\n      dup3\n      jump\t// out\n        /* \"contracts/FabricaContract.sol\":918:1086  function crearProductoAleatorio(string memory _nombre) public  {... */\n    tag_21:\n        /* \"contracts/FabricaContract.sol\":992:1004  uint _randId */\n      0x00\n        /* \"contracts/FabricaContract.sol\":1007:1035  _generarIdAleatorio(_nombre) */\n      tag_46\n        /* \"contracts/FabricaContract.sol\":1027:1034  _nombre */\n      dup3\n        /* \"contracts/FabricaContract.sol\":1007:1026  _generarIdAleatorio */\n      tag_47\n        /* \"contracts/FabricaContract.sol\":1007:1035  _generarIdAleatorio(_nombre) */\n      jump\t// in\n    tag_46:\n        /* \"contracts/FabricaContract.sol\":992:1035  uint _randId = _generarIdAleatorio(_nombre) */\n      swap1\n      pop\n        /* \"contracts/FabricaContract.sol\":1046:1078  _crearProducto(_nombre, _randId) */\n      tag_48\n        /* \"contracts/FabricaContract.sol\":1061:1068  _nombre */\n      dup3\n        /* \"contracts/FabricaContract.sol\":1070:1077  _randId */\n      dup3\n        /* \"contracts/FabricaContract.sol\":1046:1060  _crearProducto */\n      tag_49\n        /* \"contracts/FabricaContract.sol\":1046:1078  _crearProducto(_nombre, _randId) */\n      jump\t// in\n    tag_48:\n        /* \"contracts/FabricaContract.sol\":981:1086  {... */\n      pop\n        /* \"contracts/FabricaContract.sol\":918:1086  function crearProductoAleatorio(string memory _nombre) public  {... */\n      pop\n      jump\t// out\n        /* \"contracts/FabricaContract.sol\":729:910  function _generarIdAleatorio(string memory _str) private view returns (uint) {... */\n    tag_47:\n        /* \"contracts/FabricaContract.sol\":800:804  uint */\n      0x00\n        /* \"contracts/FabricaContract.sol\":817:826  uint rand */\n      dup1\n        /* \"contracts/FabricaContract.sol\":861:865  _str */\n      dup3\n        /* \"contracts/FabricaContract.sol\":844:866  abi.encodePacked(_str) */\n      add(0x20, mload(0x40))\n      tag_51\n      swap2\n      swap1\n      tag_52\n      jump\t// in\n    tag_51:\n      mload(0x40)\n      0x20\n      dup2\n      dup4\n      sub\n      sub\n      dup2\n      mstore\n      swap1\n      0x40\n      mstore\n        /* \"contracts/FabricaContract.sol\":834:867  keccak256(abi.encodePacked(_str)) */\n      dup1\n      mload\n      swap1\n      0x20\n      add\n      keccak256\n        /* \"contracts/FabricaContract.sol\":829:868  uint(keccak256(abi.encodePacked(_str))) */\n      0x00\n      shr\n        /* \"contracts/FabricaContract.sol\":817:868  uint rand = uint(keccak256(abi.encodePacked(_str))) */\n      swap1\n      pop\n        /* \"contracts/FabricaContract.sol\":893:902  idModulus */\n      sload(0x01)\n        /* \"contracts/FabricaContract.sol\":886:890  rand */\n      dup2\n        /* \"contracts/FabricaContract.sol\":886:902  rand % idModulus */\n      tag_53\n      swap2\n      swap1\n      tag_54\n      jump\t// in\n    tag_53:\n        /* \"contracts/FabricaContract.sol\":879:902  return rand % idModulus */\n      swap2\n      pop\n      pop\n        /* \"contracts/FabricaContract.sol\":729:910  function _generarIdAleatorio(string memory _str) private view returns (uint) {... */\n      swap2\n      swap1\n      pop\n      jump\t// out\n        /* \"contracts/FabricaContract.sol\":463:721  function _crearProducto(string memory _nombre, uint _id) private {... */\n    tag_49:\n        /* \"contracts/FabricaContract.sol\":539:548  productos */\n      0x02\n        /* \"contracts/FabricaContract.sol\":554:576  Producto(_nombre, _id) */\n      mload(0x40)\n      dup1\n      0x40\n      add\n      0x40\n      mstore\n      dup1\n        /* \"contracts/FabricaContract.sol\":563:570  _nombre */\n      dup5\n        /* \"contracts/FabricaContract.sol\":554:576  Producto(_nombre, _id) */\n      dup2\n      mstore\n      0x20\n      add\n        /* \"contracts/FabricaContract.sol\":572:575  _id */\n      dup4\n        /* \"contracts/FabricaContract.sol\":554:576  Producto(_nombre, _id) */\n      dup2\n      mstore\n      pop\n        /* \"contracts/FabricaContract.sol\":539:577  productos.push(Producto(_nombre, _id)) */\n      swap1\n      dup1\n      0x01\n      dup2\n      sload\n      add\n      dup1\n      dup3\n      sstore\n      dup1\n      swap2\n      pop\n      pop\n      0x01\n      swap1\n      sub\n      swap1\n      0x00\n      mstore\n      keccak256(0x00, 0x20)\n      swap1\n      0x02\n      mul\n      add\n      0x00\n      swap1\n      swap2\n      swap1\n      swap2\n      swap1\n      swap2\n      pop\n      0x00\n      dup3\n      add\n      mload\n      dup2\n      0x00\n      add\n      swap1\n      dup2\n      tag_57\n      swap2\n      swap1\n      tag_58\n      jump\t// in\n    tag_57:\n      pop\n      0x20\n      dup3\n      add\n      mload\n      dup2\n      0x01\n      add\n      sstore\n      pop\n      pop\n        /* \"contracts/FabricaContract.sol\":588:603  uint productoId */\n      0x00\n        /* \"contracts/FabricaContract.sol\":625:626  1 */\n      0x01\n        /* \"contracts/FabricaContract.sol\":606:615  productos */\n      0x02\n        /* \"contracts/FabricaContract.sol\":606:622  productos.length */\n      dup1\n      sload\n      swap1\n      pop\n        /* \"contracts/FabricaContract.sol\":606:626  productos.length - 1 */\n      tag_59\n      swap2\n      swap1\n      tag_60\n      jump\t// in\n    tag_59:\n        /* \"contracts/FabricaContract.sol\":588:626  uint productoId = productos.length - 1 */\n      swap1\n      pop\n        /* \"contracts/FabricaContract.sol\":637:658  Propiedad(productoId) */\n      tag_61\n        /* \"contracts/FabricaContract.sol\":647:657  productoId */\n      dup2\n        /* \"contracts/FabricaContract.sol\":637:646  Propiedad */\n      tag_62\n        /* \"contracts/FabricaContract.sol\":637:658  Propiedad(productoId) */\n      jump\t// in\n    tag_61:\n        /* \"contracts/FabricaContract.sol\":674:713  NuevoProducto(productoId, _nombre, _id) */\n      0x0638820bbfa7f1ab0bfb9054649b6198da60bd10654cbfe5c50d26b1bec65878\n        /* \"contracts/FabricaContract.sol\":688:698  productoId */\n      dup2\n        /* \"contracts/FabricaContract.sol\":700:707  _nombre */\n      dup5\n        /* \"contracts/FabricaContract.sol\":709:712  _id */\n      dup5\n        /* \"contracts/FabricaContract.sol\":674:713  NuevoProducto(productoId, _nombre, _id) */\n      mload(0x40)\n      tag_63\n      swap4\n      swap3\n      swap2\n      swap1\n      tag_64\n      jump\t// in\n    tag_63:\n      mload(0x40)\n      dup1\n      swap2\n      sub\n      swap1\n      log1\n        /* \"contracts/FabricaContract.sol\":528:721  {... */\n      pop\n        /* \"contracts/FabricaContract.sol\":463:721  function _crearProducto(string memory _nombre, uint _id) private {... */\n      pop\n      pop\n      jump\t// out\n        /* \"contracts/FabricaContract.sol\":1094:1395  function Propiedad(uint productoId) private  {... */\n    tag_62:\n        /* \"contracts/FabricaContract.sol\":1280:1290  msg.sender */\n      caller\n        /* \"contracts/FabricaContract.sol\":1245:1265  productoAPropietario */\n      0x03\n        /* \"contracts/FabricaContract.sol\":1245:1277  productoAPropietario[productoId] */\n      0x00\n        /* \"contracts/FabricaContract.sol\":1266:1276  productoId */\n      dup4\n        /* \"contracts/FabricaContract.sol\":1245:1277  productoAPropietario[productoId] */\n      dup2\n      mstore\n      0x20\n      add\n      swap1\n      dup2\n      mstore\n      0x20\n      add\n      0x00\n      keccak256\n      0x00\n        /* \"contracts/FabricaContract.sol\":1245:1290  productoAPropietario[productoId] = msg.sender */\n      0x0100\n      exp\n      dup2\n      sload\n      dup2\n      0xffffffffffffffffffffffffffffffffffffffff\n      mul\n      not\n      and\n      swap1\n      dup4\n      0xffffffffffffffffffffffffffffffffffffffff\n      and\n      mul\n      or\n      swap1\n      sstore\n      pop\n        /* \"contracts/FabricaContract.sol\":1353:1373  propietarioProductos */\n      0x04\n        /* \"contracts/FabricaContract.sol\":1353:1385  propietarioProductos[msg.sender] */\n      0x00\n        /* \"contracts/FabricaContract.sol\":1374:1384  msg.sender */\n      caller\n        /* \"contracts/FabricaContract.sol\":1353:1385  propietarioProductos[msg.sender] */\n      0xffffffffffffffffffffffffffffffffffffffff\n      and\n      0xffffffffffffffffffffffffffffffffffffffff\n      and\n      dup2\n      mstore\n      0x20\n      add\n      swap1\n      dup2\n      mstore\n      0x20\n      add\n      0x00\n      keccak256\n      0x00\n        /* \"contracts/FabricaContract.sol\":1353:1387  propietarioProductos[msg.sender]++ */\n      dup2\n      sload\n      dup1\n      swap3\n      swap2\n      swap1\n      tag_66\n      swap1\n      tag_35\n      jump\t// in\n    tag_66:\n      swap2\n      swap1\n      pop\n      sstore\n      pop\n        /* \"contracts/FabricaContract.sol\":1094:1395  function Propiedad(uint productoId) private  {... */\n      pop\n      jump\t// out\n        /* \"#utility.yul\":7:82   */\n    tag_67:\n        /* \"#utility.yul\":40:46   */\n      0x00\n        /* \"#utility.yul\":73:75   */\n      0x40\n        /* \"#utility.yul\":67:76   */\n      mload\n        /* \"#utility.yul\":57:76   */\n      swap1\n      pop\n        /* \"#utility.yul\":7:82   */\n      swap1\n      jump\t// out\n        /* \"#utility.yul\":88:205   */\n    tag_68:\n        /* \"#utility.yul\":197:198   */\n      0x00\n        /* \"#utility.yul\":194:195   */\n      dup1\n        /* \"#utility.yul\":187:199   */\n      revert\n        /* \"#utility.yul\":211:328   */\n    tag_69:\n        /* \"#utility.yul\":320:321   */\n      0x00\n        /* \"#utility.yul\":317:318   */\n      dup1\n        /* \"#utility.yul\":310:322   */\n      revert\n        /* \"#utility.yul\":334:460   */\n    tag_70:\n        /* \"#utility.yul\":371:378   */\n      0x00\n        /* \"#utility.yul\":411:453   */\n      0xffffffffffffffffffffffffffffffffffffffff\n        /* \"#utility.yul\":404:409   */\n      dup3\n        /* \"#utility.yul\":400:454   */\n      and\n        /* \"#utility.yul\":389:454   */\n      swap1\n      pop\n        /* \"#utility.yul\":334:460   */\n      swap2\n      swap1\n      pop\n      jump\t// out\n        /* \"#utility.yul\":466:562   */\n    tag_71:\n        /* \"#utility.yul\":503:510   */\n      0x00\n        /* \"#utility.yul\":532:556   */\n      tag_124\n        /* \"#utility.yul\":550:555   */\n      dup3\n        /* \"#utility.yul\":532:556   */\n      tag_70\n      jump\t// in\n    tag_124:\n        /* \"#utility.yul\":521:556   */\n      swap1\n      pop\n        /* \"#utility.yul\":466:562   */\n      swap2\n      swap1\n      pop\n      jump\t// out\n        /* \"#utility.yul\":568:690   */\n    tag_72:\n        /* \"#utility.yul\":641:665   */\n      tag_126\n        /* \"#utility.yul\":659:664   */\n      dup2\n        /* \"#utility.yul\":641:665   */\n      tag_71\n      jump\t// in\n    tag_126:\n        /* \"#utility.yul\":634:639   */\n      dup2\n        /* \"#utility.yul\":631:666   */\n      eq\n        /* \"#utility.yul\":621:684   */\n      tag_127\n      jumpi\n        /* \"#utility.yul\":680:681   */\n      0x00\n        /* \"#utility.yul\":677:678   */\n      dup1\n        /* \"#utility.yul\":670:682   */\n      revert\n        /* \"#utility.yul\":621:684   */\n    tag_127:\n        /* \"#utility.yul\":568:690   */\n      pop\n      jump\t// out\n        /* \"#utility.yul\":696:835   */\n    tag_73:\n        /* \"#utility.yul\":742:747   */\n      0x00\n        /* \"#utility.yul\":780:786   */\n      dup2\n        /* \"#utility.yul\":767:787   */\n      calldataload\n        /* \"#utility.yul\":758:787   */\n      swap1\n      pop\n        /* \"#utility.yul\":796:829   */\n      tag_129\n        /* \"#utility.yul\":823:828   */\n      dup2\n        /* \"#utility.yul\":796:829   */\n      tag_72\n      jump\t// in\n    tag_129:\n        /* \"#utility.yul\":696:835   */\n      swap3\n      swap2\n      pop\n      pop\n      jump\t// out\n        /* \"#utility.yul\":841:1170   */\n    tag_8:\n        /* \"#utility.yul\":900:906   */\n      0x00\n        /* \"#utility.yul\":949:951   */\n      0x20\n        /* \"#utility.yul\":937:946   */\n      dup3\n        /* \"#utility.yul\":928:935   */\n      dup5\n        /* \"#utility.yul\":924:947   */\n      sub\n        /* \"#utility.yul\":920:952   */\n      slt\n        /* \"#utility.yul\":917:1036   */\n      iszero\n      tag_131\n      jumpi\n        /* \"#utility.yul\":955:1034   */\n      tag_132\n      tag_68\n      jump\t// in\n    tag_132:\n        /* \"#utility.yul\":917:1036   */\n    tag_131:\n        /* \"#utility.yul\":1075:1076   */\n      0x00\n        /* \"#utility.yul\":1100:1153   */\n      tag_133\n        /* \"#utility.yul\":1145:1152   */\n      dup5\n        /* \"#utility.yul\":1136:1142   */\n      dup3\n        /* \"#utility.yul\":1125:1134   */\n      dup6\n        /* \"#utility.yul\":1121:1143   */\n      add\n        /* \"#utility.yul\":1100:1153   */\n      tag_73\n      jump\t// in\n    tag_133:\n        /* \"#utility.yul\":1090:1153   */\n      swap2\n      pop\n        /* \"#utility.yul\":1046:1163   */\n      pop\n        /* \"#utility.yul\":841:1170   */\n      swap3\n      swap2\n      pop\n      pop\n      jump\t// out\n        /* \"#utility.yul\":1176:1290   */\n    tag_74:\n        /* \"#utility.yul\":1243:1249   */\n      0x00\n        /* \"#utility.yul\":1277:1282   */\n      dup2\n        /* \"#utility.yul\":1271:1283   */\n      mload\n        /* \"#utility.yul\":1261:1283   */\n      swap1\n      pop\n        /* \"#utility.yul\":1176:1290   */\n      swap2\n      swap1\n      pop\n      jump\t// out\n        /* \"#utility.yul\":1296:1480   */\n    tag_75:\n        /* \"#utility.yul\":1395:1406   */\n      0x00\n        /* \"#utility.yul\":1429:1435   */\n      dup3\n        /* \"#utility.yul\":1424:1427   */\n      dup3\n        /* \"#utility.yul\":1417:1436   */\n      mstore\n        /* \"#utility.yul\":1469:1473   */\n      0x20\n        /* \"#utility.yul\":1464:1467   */\n      dup3\n        /* \"#utility.yul\":1460:1474   */\n      add\n        /* \"#utility.yul\":1445:1474   */\n      swap1\n      pop\n        /* \"#utility.yul\":1296:1480   */\n      swap3\n      swap2\n      pop\n      pop\n      jump\t// out\n        /* \"#utility.yul\":1486:1618   */\n    tag_76:\n        /* \"#utility.yul\":1553:1557   */\n      0x00\n        /* \"#utility.yul\":1576:1579   */\n      dup2\n        /* \"#utility.yul\":1568:1579   */\n      swap1\n      pop\n        /* \"#utility.yul\":1606:1610   */\n      0x20\n        /* \"#utility.yul\":1601:1604   */\n      dup3\n        /* \"#utility.yul\":1597:1611   */\n      add\n        /* \"#utility.yul\":1589:1611   */\n      swap1\n      pop\n        /* \"#utility.yul\":1486:1618   */\n      swap2\n      swap1\n      pop\n      jump\t// out\n        /* \"#utility.yul\":1624:1701   */\n    tag_77:\n        /* \"#utility.yul\":1661:1668   */\n      0x00\n        /* \"#utility.yul\":1690:1695   */\n      dup2\n        /* \"#utility.yul\":1679:1695   */\n      swap1\n      pop\n        /* \"#utility.yul\":1624:1701   */\n      swap2\n      swap1\n      pop\n      jump\t// out\n        /* \"#utility.yul\":1707:1815   */\n    tag_78:\n        /* \"#utility.yul\":1784:1808   */\n      tag_139\n        /* \"#utility.yul\":1802:1807   */\n      dup2\n        /* \"#utility.yul\":1784:1808   */\n      tag_77\n      jump\t// in\n    tag_139:\n        /* \"#utility.yul\":1779:1782   */\n      dup3\n        /* \"#utility.yul\":1772:1809   */\n      mstore\n        /* \"#utility.yul\":1707:1815   */\n      pop\n      pop\n      jump\t// out\n        /* \"#utility.yul\":1821:2000   */\n    tag_79:\n        /* \"#utility.yul\":1890:1900   */\n      0x00\n        /* \"#utility.yul\":1911:1957   */\n      tag_141\n        /* \"#utility.yul\":1953:1956   */\n      dup4\n        /* \"#utility.yul\":1945:1951   */\n      dup4\n        /* \"#utility.yul\":1911:1957   */\n      tag_78\n      jump\t// in\n    tag_141:\n        /* \"#utility.yul\":1989:1993   */\n      0x20\n        /* \"#utility.yul\":1984:1987   */\n      dup4\n        /* \"#utility.yul\":1980:1994   */\n      add\n        /* \"#utility.yul\":1966:1994   */\n      swap1\n      pop\n        /* \"#utility.yul\":1821:2000   */\n      swap3\n      swap2\n      pop\n      pop\n      jump\t// out\n        /* \"#utility.yul\":2006:2119   */\n    tag_80:\n        /* \"#utility.yul\":2076:2080   */\n      0x00\n        /* \"#utility.yul\":2108:2112   */\n      0x20\n        /* \"#utility.yul\":2103:2106   */\n      dup3\n        /* \"#utility.yul\":2099:2113   */\n      add\n        /* \"#utility.yul\":2091:2113   */\n      swap1\n      pop\n        /* \"#utility.yul\":2006:2119   */\n      swap2\n      swap1\n      pop\n      jump\t// out\n        /* \"#utility.yul\":2155:2887   */\n    tag_81:\n        /* \"#utility.yul\":2274:2277   */\n      0x00\n        /* \"#utility.yul\":2303:2357   */\n      tag_144\n        /* \"#utility.yul\":2351:2356   */\n      dup3\n        /* \"#utility.yul\":2303:2357   */\n      tag_74\n      jump\t// in\n    tag_144:\n        /* \"#utility.yul\":2373:2459   */\n      tag_145\n        /* \"#utility.yul\":2452:2458   */\n      dup2\n        /* \"#utility.yul\":2447:2450   */\n      dup6\n        /* \"#utility.yul\":2373:2459   */\n      tag_75\n      jump\t// in\n    tag_145:\n        /* \"#utility.yul\":2366:2459   */\n      swap4\n      pop\n        /* \"#utility.yul\":2483:2539   */\n      tag_146\n        /* \"#utility.yul\":2533:2538   */\n      dup4\n        /* \"#utility.yul\":2483:2539   */\n      tag_76\n      jump\t// in\n    tag_146:\n        /* \"#utility.yul\":2562:2569   */\n      dup1\n        /* \"#utility.yul\":2593:2594   */\n      0x00\n        /* \"#utility.yul\":2578:2862   */\n    tag_147:\n        /* \"#utility.yul\":2603:2609   */\n      dup4\n        /* \"#utility.yul\":2600:2601   */\n      dup2\n        /* \"#utility.yul\":2597:2610   */\n      lt\n        /* \"#utility.yul\":2578:2862   */\n      iszero\n      tag_149\n      jumpi\n        /* \"#utility.yul\":2679:2685   */\n      dup2\n        /* \"#utility.yul\":2673:2686   */\n      mload\n        /* \"#utility.yul\":2706:2769   */\n      tag_150\n        /* \"#utility.yul\":2765:2768   */\n      dup9\n        /* \"#utility.yul\":2750:2763   */\n      dup3\n        /* \"#utility.yul\":2706:2769   */\n      tag_79\n      jump\t// in\n    tag_150:\n        /* \"#utility.yul\":2699:2769   */\n      swap8\n      pop\n        /* \"#utility.yul\":2792:2852   */\n      tag_151\n        /* \"#utility.yul\":2845:2851   */\n      dup4\n        /* \"#utility.yul\":2792:2852   */\n      tag_80\n      jump\t// in\n    tag_151:\n        /* \"#utility.yul\":2782:2852   */\n      swap3\n      pop\n        /* \"#utility.yul\":2638:2862   */\n      pop\n        /* \"#utility.yul\":2625:2626   */\n      0x01\n        /* \"#utility.yul\":2622:2623   */\n      dup2\n        /* \"#utility.yul\":2618:2627   */\n      add\n        /* \"#utility.yul\":2613:2627   */\n      swap1\n      pop\n        /* \"#utility.yul\":2578:2862   */\n      jump(tag_147)\n    tag_149:\n        /* \"#utility.yul\":2582:2596   */\n      pop\n        /* \"#utility.yul\":2878:2881   */\n      dup6\n        /* \"#utility.yul\":2871:2881   */\n      swap4\n      pop\n        /* \"#utility.yul\":2279:2887   */\n      pop\n      pop\n      pop\n        /* \"#utility.yul\":2155:2887   */\n      swap3\n      swap2\n      pop\n      pop\n      jump\t// out\n        /* \"#utility.yul\":2893:3266   */\n    tag_11:\n        /* \"#utility.yul\":3036:3040   */\n      0x00\n        /* \"#utility.yul\":3074:3076   */\n      0x20\n        /* \"#utility.yul\":3063:3072   */\n      dup3\n        /* \"#utility.yul\":3059:3077   */\n      add\n        /* \"#utility.yul\":3051:3077   */\n      swap1\n      pop\n        /* \"#utility.yul\":3123:3132   */\n      dup2\n        /* \"#utility.yul\":3117:3121   */\n      dup2\n        /* \"#utility.yul\":3113:3133   */\n      sub\n        /* \"#utility.yul\":3109:3110   */\n      0x00\n        /* \"#utility.yul\":3098:3107   */\n      dup4\n        /* \"#utility.yul\":3094:3111   */\n      add\n        /* \"#utility.yul\":3087:3134   */\n      mstore\n        /* \"#utility.yul\":3151:3259   */\n      tag_153\n        /* \"#utility.yul\":3254:3258   */\n      dup2\n        /* \"#utility.yul\":3245:3251   */\n      dup5\n        /* \"#utility.yul\":3151:3259   */\n      tag_81\n      jump\t// in\n    tag_153:\n        /* \"#utility.yul\":3143:3259   */\n      swap1\n      pop\n        /* \"#utility.yul\":2893:3266   */\n      swap3\n      swap2\n      pop\n      pop\n      jump\t// out\n        /* \"#utility.yul\":3272:3394   */\n    tag_82:\n        /* \"#utility.yul\":3345:3369   */\n      tag_155\n        /* \"#utility.yul\":3363:3368   */\n      dup2\n        /* \"#utility.yul\":3345:3369   */\n      tag_77\n      jump\t// in\n    tag_155:\n        /* \"#utility.yul\":3338:3343   */\n      dup2\n        /* \"#utility.yul\":3335:3370   */\n      eq\n        /* \"#utility.yul\":3325:3388   */\n      tag_156\n      jumpi\n        /* \"#utility.yul\":3384:3385   */\n      0x00\n        /* \"#utility.yul\":3381:3382   */\n      dup1\n        /* \"#utility.yul\":3374:3386   */\n      revert\n        /* \"#utility.yul\":3325:3388   */\n    tag_156:\n        /* \"#utility.yul\":3272:3394   */\n      pop\n      jump\t// out\n        /* \"#utility.yul\":3400:3539   */\n    tag_83:\n        /* \"#utility.yul\":3446:3451   */\n      0x00\n        /* \"#utility.yul\":3484:3490   */\n      dup2\n        /* \"#utility.yul\":3471:3491   */\n      calldataload\n        /* \"#utility.yul\":3462:3491   */\n      swap1\n      pop\n        /* \"#utility.yul\":3500:3533   */\n      tag_158\n        /* \"#utility.yul\":3527:3532   */\n      dup2\n        /* \"#utility.yul\":3500:3533   */\n      tag_82\n      jump\t// in\n    tag_158:\n        /* \"#utility.yul\":3400:3539   */\n      swap3\n      swap2\n      pop\n      pop\n      jump\t// out\n        /* \"#utility.yul\":3545:3874   */\n    tag_14:\n        /* \"#utility.yul\":3604:3610   */\n      0x00\n        /* \"#utility.yul\":3653:3655   */\n      0x20\n        /* \"#utility.yul\":3641:3650   */\n      dup3\n        /* \"#utility.yul\":3632:3639   */\n      dup5\n        /* \"#utility.yul\":3628:3651   */\n      sub\n        /* \"#utility.yul\":3624:3656   */\n      slt\n        /* \"#utility.yul\":3621:3740   */\n      iszero\n      tag_160\n      jumpi\n        /* \"#utility.yul\":3659:3738   */\n      tag_161\n      tag_68\n      jump\t// in\n    tag_161:\n        /* \"#utility.yul\":3621:3740   */\n    tag_160:\n        /* \"#utility.yul\":3779:3780   */\n      0x00\n        /* \"#utility.yul\":3804:3857   */\n      tag_162\n        /* \"#utility.yul\":3849:3856   */\n      dup5\n        /* \"#utility.yul\":3840:3846   */\n      dup3\n        /* \"#utility.yul\":3829:3838   */\n      dup6\n        /* \"#utility.yul\":3825:3847   */\n      add\n        /* \"#utility.yul\":3804:3857   */\n      tag_83\n      jump\t// in\n    tag_162:\n        /* \"#utility.yul\":3794:3857   */\n      swap2\n      pop\n        /* \"#utility.yul\":3750:3867   */\n      pop\n        /* \"#utility.yul\":3545:3874   */\n      swap3\n      swap2\n      pop\n      pop\n      jump\t// out\n        /* \"#utility.yul\":3880:3979   */\n    tag_84:\n        /* \"#utility.yul\":3932:3938   */\n      0x00\n        /* \"#utility.yul\":3966:3971   */\n      dup2\n        /* \"#utility.yul\":3960:3972   */\n      mload\n        /* \"#utility.yul\":3950:3972   */\n      swap1\n      pop\n        /* \"#utility.yul\":3880:3979   */\n      swap2\n      swap1\n      pop\n      jump\t// out\n        /* \"#utility.yul\":3985:4154   */\n    tag_85:\n        /* \"#utility.yul\":4069:4080   */\n      0x00\n        /* \"#utility.yul\":4103:4109   */\n      dup3\n        /* \"#utility.yul\":4098:4101   */\n      dup3\n        /* \"#utility.yul\":4091:4110   */\n      mstore\n        /* \"#utility.yul\":4143:4147   */\n      0x20\n        /* \"#utility.yul\":4138:4141   */\n      dup3\n        /* \"#utility.yul\":4134:4148   */\n      add\n        /* \"#utility.yul\":4119:4148   */\n      swap1\n      pop\n        /* \"#utility.yul\":3985:4154   */\n      swap3\n      swap2\n      pop\n      pop\n      jump\t// out\n        /* \"#utility.yul\":4160:4406   */\n    tag_86:\n        /* \"#utility.yul\":4241:4242   */\n      0x00\n        /* \"#utility.yul\":4251:4364   */\n    tag_166:\n        /* \"#utility.yul\":4265:4271   */\n      dup4\n        /* \"#utility.yul\":4262:4263   */\n      dup2\n        /* \"#utility.yul\":4259:4272   */\n      lt\n        /* \"#utility.yul\":4251:4364   */\n      iszero\n      tag_168\n      jumpi\n        /* \"#utility.yul\":4350:4351   */\n      dup1\n        /* \"#utility.yul\":4345:4348   */\n      dup3\n        /* \"#utility.yul\":4341:4352   */\n      add\n        /* \"#utility.yul\":4335:4353   */\n      mload\n        /* \"#utility.yul\":4331:4332   */\n      dup2\n        /* \"#utility.yul\":4326:4329   */\n      dup5\n        /* \"#utility.yul\":4322:4333   */\n      add\n        /* \"#utility.yul\":4315:4354   */\n      mstore\n        /* \"#utility.yul\":4287:4289   */\n      0x20\n        /* \"#utility.yul\":4284:4285   */\n      dup2\n        /* \"#utility.yul\":4280:4290   */\n      add\n        /* \"#utility.yul\":4275:4290   */\n      swap1\n      pop\n        /* \"#utility.yul\":4251:4364   */\n      jump(tag_166)\n    tag_168:\n        /* \"#utility.yul\":4398:4399   */\n      0x00\n        /* \"#utility.yul\":4389:4395   */\n      dup5\n        /* \"#utility.yul\":4384:4387   */\n      dup5\n        /* \"#utility.yul\":4380:4396   */\n      add\n        /* \"#utility.yul\":4373:4400   */\n      mstore\n        /* \"#utility.yul\":4222:4406   */\n      pop\n        /* \"#utility.yul\":4160:4406   */\n      pop\n      pop\n      pop\n      jump\t// out\n        /* \"#utility.yul\":4412:4514   */\n    tag_87:\n        /* \"#utility.yul\":4453:4459   */\n      0x00\n        /* \"#utility.yul\":4504:4506   */\n      0x1f\n        /* \"#utility.yul\":4500:4507   */\n      not\n        /* \"#utility.yul\":4495:4497   */\n      0x1f\n        /* \"#utility.yul\":4488:4493   */\n      dup4\n        /* \"#utility.yul\":4484:4498   */\n      add\n        /* \"#utility.yul\":4480:4508   */\n      and\n        /* \"#utility.yul\":4470:4508   */\n      swap1\n      pop\n        /* \"#utility.yul\":4412:4514   */\n      swap2\n      swap1\n      pop\n      jump\t// out\n        /* \"#utility.yul\":4520:4897   */\n    tag_88:\n        /* \"#utility.yul\":4608:4611   */\n      0x00\n        /* \"#utility.yul\":4636:4675   */\n      tag_171\n        /* \"#utility.yul\":4669:4674   */\n      dup3\n        /* \"#utility.yul\":4636:4675   */\n      tag_84\n      jump\t// in\n    tag_171:\n        /* \"#utility.yul\":4691:4762   */\n      tag_172\n        /* \"#utility.yul\":4755:4761   */\n      dup2\n        /* \"#utility.yul\":4750:4753   */\n      dup6\n        /* \"#utility.yul\":4691:4762   */\n      tag_85\n      jump\t// in\n    tag_172:\n        /* \"#utility.yul\":4684:4762   */\n      swap4\n      pop\n        /* \"#utility.yul\":4771:4836   */\n      tag_173\n        /* \"#utility.yul\":4829:4835   */\n      dup2\n        /* \"#utility.yul\":4824:4827   */\n      dup6\n        /* \"#utility.yul\":4817:4821   */\n      0x20\n        /* \"#utility.yul\":4810:4815   */\n      dup7\n        /* \"#utility.yul\":4806:4822   */\n      add\n        /* \"#utility.yul\":4771:4836   */\n      tag_86\n      jump\t// in\n    tag_173:\n        /* \"#utility.yul\":4861:4890   */\n      tag_174\n        /* \"#utility.yul\":4883:4889   */\n      dup2\n        /* \"#utility.yul\":4861:4890   */\n      tag_87\n      jump\t// in\n    tag_174:\n        /* \"#utility.yul\":4856:4859   */\n      dup5\n        /* \"#utility.yul\":4852:4891   */\n      add\n        /* \"#utility.yul\":4845:4891   */\n      swap2\n      pop\n        /* \"#utility.yul\":4612:4897   */\n      pop\n        /* \"#utility.yul\":4520:4897   */\n      swap3\n      swap2\n      pop\n      pop\n      jump\t// out\n        /* \"#utility.yul\":4903:5021   */\n    tag_89:\n        /* \"#utility.yul\":4990:5014   */\n      tag_176\n        /* \"#utility.yul\":5008:5013   */\n      dup2\n        /* \"#utility.yul\":4990:5014   */\n      tag_77\n      jump\t// in\n    tag_176:\n        /* \"#utility.yul\":4985:4988   */\n      dup3\n        /* \"#utility.yul\":4978:5015   */\n      mstore\n        /* \"#utility.yul\":4903:5021   */\n      pop\n      pop\n      jump\t// out\n        /* \"#utility.yul\":5027:5450   */\n    tag_17:\n        /* \"#utility.yul\":5168:5172   */\n      0x00\n        /* \"#utility.yul\":5206:5208   */\n      0x40\n        /* \"#utility.yul\":5195:5204   */\n      dup3\n        /* \"#utility.yul\":5191:5209   */\n      add\n        /* \"#utility.yul\":5183:5209   */\n      swap1\n      pop\n        /* \"#utility.yul\":5255:5264   */\n      dup2\n        /* \"#utility.yul\":5249:5253   */\n      dup2\n        /* \"#utility.yul\":5245:5265   */\n      sub\n        /* \"#utility.yul\":5241:5242   */\n      0x00\n        /* \"#utility.yul\":5230:5239   */\n      dup4\n        /* \"#utility.yul\":5226:5243   */\n      add\n        /* \"#utility.yul\":5219:5266   */\n      mstore\n        /* \"#utility.yul\":5283:5361   */\n      tag_178\n        /* \"#utility.yul\":5356:5360   */\n      dup2\n        /* \"#utility.yul\":5347:5353   */\n      dup6\n        /* \"#utility.yul\":5283:5361   */\n      tag_88\n      jump\t// in\n    tag_178:\n        /* \"#utility.yul\":5275:5361   */\n      swap1\n      pop\n        /* \"#utility.yul\":5371:5443   */\n      tag_179\n        /* \"#utility.yul\":5439:5441   */\n      0x20\n        /* \"#utility.yul\":5428:5437   */\n      dup4\n        /* \"#utility.yul\":5424:5442   */\n      add\n        /* \"#utility.yul\":5415:5421   */\n      dup5\n        /* \"#utility.yul\":5371:5443   */\n      tag_89\n      jump\t// in\n    tag_179:\n        /* \"#utility.yul\":5027:5450   */\n      swap4\n      swap3\n      pop\n      pop\n      pop\n      jump\t// out\n        /* \"#utility.yul\":5456:5573   */\n    tag_90:\n        /* \"#utility.yul\":5565:5566   */\n      0x00\n        /* \"#utility.yul\":5562:5563   */\n      dup1\n        /* \"#utility.yul\":5555:5567   */\n      revert\n        /* \"#utility.yul\":5579:5696   */\n    tag_91:\n        /* \"#utility.yul\":5688:5689   */\n      0x00\n        /* \"#utility.yul\":5685:5686   */\n      dup1\n        /* \"#utility.yul\":5678:5690   */\n      revert\n        /* \"#utility.yul\":5702:5882   */\n    tag_25:\n        /* \"#utility.yul\":5750:5827   */\n      0x4e487b7100000000000000000000000000000000000000000000000000000000\n        /* \"#utility.yul\":5747:5748   */\n      0x00\n        /* \"#utility.yul\":5740:5828   */\n      mstore\n        /* \"#utility.yul\":5847:5851   */\n      0x41\n        /* \"#utility.yul\":5844:5845   */\n      0x04\n        /* \"#utility.yul\":5837:5852   */\n      mstore\n        /* \"#utility.yul\":5871:5875   */\n      0x24\n        /* \"#utility.yul\":5868:5869   */\n      0x00\n        /* \"#utility.yul\":5861:5876   */\n      revert\n        /* \"#utility.yul\":5888:6169   */\n    tag_92:\n        /* \"#utility.yul\":5971:5998   */\n      tag_184\n        /* \"#utility.yul\":5993:5997   */\n      dup3\n        /* \"#utility.yul\":5971:5998   */\n      tag_87\n      jump\t// in\n    tag_184:\n        /* \"#utility.yul\":5963:5969   */\n      dup2\n        /* \"#utility.yul\":5959:5999   */\n      add\n        /* \"#utility.yul\":6101:6107   */\n      dup2\n        /* \"#utility.yul\":6089:6099   */\n      dup2\n        /* \"#utility.yul\":6086:6108   */\n      lt\n        /* \"#utility.yul\":6065:6083   */\n      0xffffffffffffffff\n        /* \"#utility.yul\":6053:6063   */\n      dup3\n        /* \"#utility.yul\":6050:6084   */\n      gt\n        /* \"#utility.yul\":6047:6109   */\n      or\n        /* \"#utility.yul\":6044:6132   */\n      iszero\n      tag_185\n      jumpi\n        /* \"#utility.yul\":6112:6130   */\n      tag_186\n      tag_25\n      jump\t// in\n    tag_186:\n        /* \"#utility.yul\":6044:6132   */\n    tag_185:\n        /* \"#utility.yul\":6152:6162   */\n      dup1\n        /* \"#utility.yul\":6148:6150   */\n      0x40\n        /* \"#utility.yul\":6141:6163   */\n      mstore\n        /* \"#utility.yul\":5931:6169   */\n      pop\n        /* \"#utility.yul\":5888:6169   */\n      pop\n      pop\n      jump\t// out\n        /* \"#utility.yul\":6175:6304   */\n    tag_93:\n        /* \"#utility.yul\":6209:6215   */\n      0x00\n        /* \"#utility.yul\":6236:6256   */\n      tag_188\n      tag_67\n      jump\t// in\n    tag_188:\n        /* \"#utility.yul\":6226:6256   */\n      swap1\n      pop\n        /* \"#utility.yul\":6265:6298   */\n      tag_189\n        /* \"#utility.yul\":6293:6297   */\n      dup3\n        /* \"#utility.yul\":6285:6291   */\n      dup3\n        /* \"#utility.yul\":6265:6298   */\n      tag_92\n      jump\t// in\n    tag_189:\n        /* \"#utility.yul\":6175:6304   */\n      swap2\n      swap1\n      pop\n      jump\t// out\n        /* \"#utility.yul\":6310:6618   */\n    tag_94:\n        /* \"#utility.yul\":6372:6376   */\n      0x00\n        /* \"#utility.yul\":6462:6480   */\n      0xffffffffffffffff\n        /* \"#utility.yul\":6454:6460   */\n      dup3\n        /* \"#utility.yul\":6451:6481   */\n      gt\n        /* \"#utility.yul\":6448:6504   */\n      iszero\n      tag_191\n      jumpi\n        /* \"#utility.yul\":6484:6502   */\n      tag_192\n      tag_25\n      jump\t// in\n    tag_192:\n        /* \"#utility.yul\":6448:6504   */\n    tag_191:\n        /* \"#utility.yul\":6522:6551   */\n      tag_193\n        /* \"#utility.yul\":6544:6550   */\n      dup3\n        /* \"#utility.yul\":6522:6551   */\n      tag_87\n      jump\t// in\n    tag_193:\n        /* \"#utility.yul\":6514:6551   */\n      swap1\n      pop\n        /* \"#utility.yul\":6606:6610   */\n      0x20\n        /* \"#utility.yul\":6600:6604   */\n      dup2\n        /* \"#utility.yul\":6596:6611   */\n      add\n        /* \"#utility.yul\":6588:6611   */\n      swap1\n      pop\n        /* \"#utility.yul\":6310:6618   */\n      swap2\n      swap1\n      pop\n      jump\t// out\n        /* \"#utility.yul\":6624:6770   */\n    tag_95:\n        /* \"#utility.yul\":6721:6727   */\n      dup3\n        /* \"#utility.yul\":6716:6719   */\n      dup2\n        /* \"#utility.yul\":6711:6714   */\n      dup4\n        /* \"#utility.yul\":6698:6728   */\n      calldatacopy\n        /* \"#utility.yul\":6762:6763   */\n      0x00\n        /* \"#utility.yul\":6753:6759   */\n      dup4\n        /* \"#utility.yul\":6748:6751   */\n      dup4\n        /* \"#utility.yul\":6744:6760   */\n      add\n        /* \"#utility.yul\":6737:6764   */\n      mstore\n        /* \"#utility.yul\":6624:6770   */\n      pop\n      pop\n      pop\n      jump\t// out\n        /* \"#utility.yul\":6776:7201   */\n    tag_96:\n        /* \"#utility.yul\":6854:6859   */\n      0x00\n        /* \"#utility.yul\":6879:6945   */\n      tag_196\n        /* \"#utility.yul\":6895:6944   */\n      tag_197\n        /* \"#utility.yul\":6937:6943   */\n      dup5\n        /* \"#utility.yul\":6895:6944   */\n      tag_94\n      jump\t// in\n    tag_197:\n        /* \"#utility.yul\":6879:6945   */\n      tag_93\n      jump\t// in\n    tag_196:\n        /* \"#utility.yul\":6870:6945   */\n      swap1\n      pop\n        /* \"#utility.yul\":6968:6974   */\n      dup3\n        /* \"#utility.yul\":6961:6966   */\n      dup2\n        /* \"#utility.yul\":6954:6975   */\n      mstore\n        /* \"#utility.yul\":7006:7010   */\n      0x20\n        /* \"#utility.yul\":6999:7004   */\n      dup2\n        /* \"#utility.yul\":6995:7011   */\n      add\n        /* \"#utility.yul\":7044:7047   */\n      dup5\n        /* \"#utility.yul\":7035:7041   */\n      dup5\n        /* \"#utility.yul\":7030:7033   */\n      dup5\n        /* \"#utility.yul\":7026:7042   */\n      add\n        /* \"#utility.yul\":7023:7048   */\n      gt\n        /* \"#utility.yul\":7020:7132   */\n      iszero\n      tag_198\n      jumpi\n        /* \"#utility.yul\":7051:7130   */\n      tag_199\n      tag_91\n      jump\t// in\n    tag_199:\n        /* \"#utility.yul\":7020:7132   */\n    tag_198:\n        /* \"#utility.yul\":7141:7195   */\n      tag_200\n        /* \"#utility.yul\":7188:7194   */\n      dup5\n        /* \"#utility.yul\":7183:7186   */\n      dup3\n        /* \"#utility.yul\":7178:7181   */\n      dup6\n        /* \"#utility.yul\":7141:7195   */\n      tag_95\n      jump\t// in\n    tag_200:\n        /* \"#utility.yul\":6860:7201   */\n      pop\n        /* \"#utility.yul\":6776:7201   */\n      swap4\n      swap3\n      pop\n      pop\n      pop\n      jump\t// out\n        /* \"#utility.yul\":7221:7561   */\n    tag_97:\n        /* \"#utility.yul\":7277:7282   */\n      0x00\n        /* \"#utility.yul\":7326:7329   */\n      dup3\n        /* \"#utility.yul\":7319:7323   */\n      0x1f\n        /* \"#utility.yul\":7311:7317   */\n      dup4\n        /* \"#utility.yul\":7307:7324   */\n      add\n        /* \"#utility.yul\":7303:7330   */\n      slt\n        /* \"#utility.yul\":7293:7415   */\n      tag_202\n      jumpi\n        /* \"#utility.yul\":7334:7413   */\n      tag_203\n      tag_90\n      jump\t// in\n    tag_203:\n        /* \"#utility.yul\":7293:7415   */\n    tag_202:\n        /* \"#utility.yul\":7451:7457   */\n      dup2\n        /* \"#utility.yul\":7438:7458   */\n      calldataload\n        /* \"#utility.yul\":7476:7555   */\n      tag_204\n        /* \"#utility.yul\":7551:7554   */\n      dup5\n        /* \"#utility.yul\":7543:7549   */\n      dup3\n        /* \"#utility.yul\":7536:7540   */\n      0x20\n        /* \"#utility.yul\":7528:7534   */\n      dup7\n        /* \"#utility.yul\":7524:7541   */\n      add\n        /* \"#utility.yul\":7476:7555   */\n      tag_96\n      jump\t// in\n    tag_204:\n        /* \"#utility.yul\":7467:7555   */\n      swap2\n      pop\n        /* \"#utility.yul\":7283:7561   */\n      pop\n        /* \"#utility.yul\":7221:7561   */\n      swap3\n      swap2\n      pop\n      pop\n      jump\t// out\n        /* \"#utility.yul\":7567:8076   */\n    tag_20:\n        /* \"#utility.yul\":7636:7642   */\n      0x00\n        /* \"#utility.yul\":7685:7687   */\n      0x20\n        /* \"#utility.yul\":7673:7682   */\n      dup3\n        /* \"#utility.yul\":7664:7671   */\n      dup5\n        /* \"#utility.yul\":7660:7683   */\n      sub\n        /* \"#utility.yul\":7656:7688   */\n      slt\n        /* \"#utility.yul\":7653:7772   */\n      iszero\n      tag_206\n      jumpi\n        /* \"#utility.yul\":7691:7770   */\n      tag_207\n      tag_68\n      jump\t// in\n    tag_207:\n        /* \"#utility.yul\":7653:7772   */\n    tag_206:\n        /* \"#utility.yul\":7839:7840   */\n      0x00\n        /* \"#utility.yul\":7828:7837   */\n      dup3\n        /* \"#utility.yul\":7824:7841   */\n      add\n        /* \"#utility.yul\":7811:7842   */\n      calldataload\n        /* \"#utility.yul\":7869:7887   */\n      0xffffffffffffffff\n        /* \"#utility.yul\":7861:7867   */\n      dup2\n        /* \"#utility.yul\":7858:7888   */\n      gt\n        /* \"#utility.yul\":7855:7972   */\n      iszero\n      tag_208\n      jumpi\n        /* \"#utility.yul\":7891:7970   */\n      tag_209\n      tag_69\n      jump\t// in\n    tag_209:\n        /* \"#utility.yul\":7855:7972   */\n    tag_208:\n        /* \"#utility.yul\":7996:8059   */\n      tag_210\n        /* \"#utility.yul\":8051:8058   */\n      dup5\n        /* \"#utility.yul\":8042:8048   */\n      dup3\n        /* \"#utility.yul\":8031:8040   */\n      dup6\n        /* \"#utility.yul\":8027:8049   */\n      add\n        /* \"#utility.yul\":7996:8059   */\n      tag_97\n      jump\t// in\n    tag_210:\n        /* \"#utility.yul\":7986:8059   */\n      swap2\n      pop\n        /* \"#utility.yul\":7782:8069   */\n      pop\n        /* \"#utility.yul\":7567:8076   */\n      swap3\n      swap2\n      pop\n      pop\n      jump\t// out\n        /* \"#utility.yul\":8082:8262   */\n    tag_33:\n        /* \"#utility.yul\":8130:8207   */\n      0x4e487b7100000000000000000000000000000000000000000000000000000000\n        /* \"#utility.yul\":8127:8128   */\n      0x00\n        /* \"#utility.yul\":8120:8208   */\n      mstore\n        /* \"#utility.yul\":8227:8231   */\n      0x32\n        /* \"#utility.yul\":8224:8225   */\n      0x04\n        /* \"#utility.yul\":8217:8232   */\n      mstore\n        /* \"#utility.yul\":8251:8255   */\n      0x24\n        /* \"#utility.yul\":8248:8249   */\n      0x00\n        /* \"#utility.yul\":8241:8256   */\n      revert\n        /* \"#utility.yul\":8268:8448   */\n    tag_98:\n        /* \"#utility.yul\":8316:8393   */\n      0x4e487b7100000000000000000000000000000000000000000000000000000000\n        /* \"#utility.yul\":8313:8314   */\n      0x00\n        /* \"#utility.yul\":8306:8394   */\n      mstore\n        /* \"#utility.yul\":8413:8417   */\n      0x11\n        /* \"#utility.yul\":8410:8411   */\n      0x04\n        /* \"#utility.yul\":8403:8418   */\n      mstore\n        /* \"#utility.yul\":8437:8441   */\n      0x24\n        /* \"#utility.yul\":8434:8435   */\n      0x00\n        /* \"#utility.yul\":8427:8442   */\n      revert\n        /* \"#utility.yul\":8454:8687   */\n    tag_35:\n        /* \"#utility.yul\":8493:8496   */\n      0x00\n        /* \"#utility.yul\":8516:8540   */\n      tag_214\n        /* \"#utility.yul\":8534:8539   */\n      dup3\n        /* \"#utility.yul\":8516:8540   */\n      tag_77\n      jump\t// in\n    tag_214:\n        /* \"#utility.yul\":8507:8540   */\n      swap2\n      pop\n        /* \"#utility.yul\":8562:8628   */\n      0xffffffffffffffffffffffffffffffffffffffffffffffffffffffffffffffff\n        /* \"#utility.yul\":8555:8560   */\n      dup3\n        /* \"#utility.yul\":8552:8629   */\n      sub\n        /* \"#utility.yul\":8549:8652   */\n      tag_215\n      jumpi\n        /* \"#utility.yul\":8632:8650   */\n      tag_216\n      tag_98\n      jump\t// in\n    tag_216:\n        /* \"#utility.yul\":8549:8652   */\n    tag_215:\n        /* \"#utility.yul\":8679:8680   */\n      0x01\n        /* \"#utility.yul\":8672:8677   */\n      dup3\n        /* \"#utility.yul\":8668:8681   */\n      add\n        /* \"#utility.yul\":8661:8681   */\n      swap1\n      pop\n        /* \"#utility.yul\":8454:8687   */\n      swap2\n      swap1\n      pop\n      jump\t// out\n        /* \"#utility.yul\":8693:8873   */\n    tag_99:\n        /* \"#utility.yul\":8741:8818   */\n      0x4e487b7100000000000000000000000000000000000000000000000000000000\n        /* \"#utility.yul\":8738:8739   */\n      0x00\n        /* \"#utility.yul\":8731:8819   */\n      mstore\n        /* \"#utility.yul\":8838:8842   */\n      0x22\n        /* \"#utility.yul\":8835:8836   */\n      0x04\n        /* \"#utility.yul\":8828:8843   */\n      mstore\n        /* \"#utility.yul\":8862:8866   */\n      0x24\n        /* \"#utility.yul\":8859:8860   */\n      0x00\n        /* \"#utility.yul\":8852:8867   */\n      revert\n        /* \"#utility.yul\":8879:9199   */\n    tag_40:\n        /* \"#utility.yul\":8923:8929   */\n      0x00\n        /* \"#utility.yul\":8960:8961   */\n      0x02\n        /* \"#utility.yul\":8954:8958   */\n      dup3\n        /* \"#utility.yul\":8950:8962   */\n      div\n        /* \"#utility.yul\":8940:8962   */\n      swap1\n      pop\n        /* \"#utility.yul\":9007:9008   */\n      0x01\n        /* \"#utility.yul\":9001:9005   */\n      dup3\n        /* \"#utility.yul\":8997:9009   */\n      and\n        /* \"#utility.yul\":9028:9046   */\n      dup1\n        /* \"#utility.yul\":9018:9099   */\n      tag_219\n      jumpi\n        /* \"#utility.yul\":9084:9088   */\n      0x7f\n        /* \"#utility.yul\":9076:9082   */\n      dup3\n        /* \"#utility.yul\":9072:9089   */\n      and\n        /* \"#utility.yul\":9062:9089   */\n      swap2\n      pop\n        /* \"#utility.yul\":9018:9099   */\n    tag_219:\n        /* \"#utility.yul\":9146:9148   */\n      0x20\n        /* \"#utility.yul\":9138:9144   */\n      dup3\n        /* \"#utility.yul\":9135:9149   */\n      lt\n        /* \"#utility.yul\":9115:9133   */\n      dup2\n        /* \"#utility.yul\":9112:9150   */\n      sub\n        /* \"#utility.yul\":9109:9193   */\n      tag_220\n      jumpi\n        /* \"#utility.yul\":9165:9183   */\n      tag_221\n      tag_99\n      jump\t// in\n    tag_221:\n        /* \"#utility.yul\":9109:9193   */\n    tag_220:\n        /* \"#utility.yul\":8930:9199   */\n      pop\n        /* \"#utility.yul\":8879:9199   */\n      swap2\n      swap1\n      pop\n      jump\t// out\n        /* \"#utility.yul\":9205:9353   */\n    tag_100:\n        /* \"#utility.yul\":9307:9318   */\n      0x00\n        /* \"#utility.yul\":9344:9347   */\n      dup2\n        /* \"#utility.yul\":9329:9347   */\n      swap1\n      pop\n        /* \"#utility.yul\":9205:9353   */\n      swap3\n      swap2\n      pop\n      pop\n      jump\t// out\n        /* \"#utility.yul\":9359:9749   */\n    tag_101:\n        /* \"#utility.yul\":9465:9468   */\n      0x00\n        /* \"#utility.yul\":9493:9532   */\n      tag_224\n        /* \"#utility.yul\":9526:9531   */\n      dup3\n        /* \"#utility.yul\":9493:9532   */\n      tag_84\n      jump\t// in\n    tag_224:\n        /* \"#utility.yul\":9548:9637   */\n      tag_225\n        /* \"#utility.yul\":9630:9636   */\n      dup2\n        /* \"#utility.yul\":9625:9628   */\n      dup6\n        /* \"#utility.yul\":9548:9637   */\n      tag_100\n      jump\t// in\n    tag_225:\n        /* \"#utility.yul\":9541:9637   */\n      swap4\n      pop\n        /* \"#utility.yul\":9646:9711   */\n      tag_226\n        /* \"#utility.yul\":9704:9710   */\n      dup2\n        /* \"#utility.yul\":9699:9702   */\n      dup6\n        /* \"#utility.yul\":9692:9696   */\n      0x20\n        /* \"#utility.yul\":9685:9690   */\n      dup7\n        /* \"#utility.yul\":9681:9697   */\n      add\n        /* \"#utility.yul\":9646:9711   */\n      tag_86\n      jump\t// in\n    tag_226:\n        /* \"#utility.yul\":9736:9742   */\n      dup1\n        /* \"#utility.yul\":9731:9734   */\n      dup5\n        /* \"#utility.yul\":9727:9743   */\n      add\n        /* \"#utility.yul\":9720:9743   */\n      swap2\n      pop\n        /* \"#utility.yul\":9469:9749   */\n      pop\n        /* \"#utility.yul\":9359:9749   */\n      swap3\n      swap2\n      pop\n      pop\n      jump\t// out\n        /* \"#utility.yul\":9755:10030   */\n    tag_52:\n        /* \"#utility.yul\":9887:9890   */\n      0x00\n        /* \"#utility.yul\":9909:10004   */\n      tag_228\n        /* \"#utility.yul\":10000:10003   */\n      dup3\n        /* \"#utility.yul\":9991:9997   */\n      dup5\n        /* \"#utility.yul\":9909:10004   */\n      tag_101\n      jump\t// in\n    tag_228:\n        /* \"#utility.yul\":9902:10004   */\n      swap2\n      pop\n        /* \"#utility.yul\":10021:10024   */\n      dup2\n        /* \"#utility.yul\":10014:10024   */\n      swap1\n      pop\n        /* \"#utility.yul\":9755:10030   */\n      swap3\n      swap2\n      pop\n      pop\n      jump\t// out\n        /* \"#utility.yul\":10036:10216   */\n    tag_102:\n        /* \"#utility.yul\":10084:10161   */\n      0x4e487b7100000000000000000000000000000000000000000000000000000000\n        /* \"#utility.yul\":10081:10082   */\n      0x00\n        /* \"#utility.yul\":10074:10162   */\n      mstore\n        /* \"#utility.yul\":10181:10185   */\n      0x12\n        /* \"#utility.yul\":10178:10179   */\n      0x04\n        /* \"#utility.yul\":10171:10186   */\n      mstore\n        /* \"#utility.yul\":10205:10209   */\n      0x24\n        /* \"#utility.yul\":10202:10203   */\n      0x00\n        /* \"#utility.yul\":10195:10210   */\n      revert\n        /* \"#utility.yul\":10222:10398   */\n    tag_54:\n        /* \"#utility.yul\":10254:10255   */\n      0x00\n        /* \"#utility.yul\":10271:10291   */\n      tag_231\n        /* \"#utility.yul\":10289:10290   */\n      dup3\n        /* \"#utility.yul\":10271:10291   */\n      tag_77\n      jump\t// in\n    tag_231:\n        /* \"#utility.yul\":10266:10291   */\n      swap2\n      pop\n        /* \"#utility.yul\":10305:10325   */\n      tag_232\n        /* \"#utility.yul\":10323:10324   */\n      dup4\n        /* \"#utility.yul\":10305:10325   */\n      tag_77\n      jump\t// in\n    tag_232:\n        /* \"#utility.yul\":10300:10325   */\n      swap3\n      pop\n        /* \"#utility.yul\":10344:10345   */\n      dup3\n        /* \"#utility.yul\":10334:10369   */\n      tag_233\n      jumpi\n        /* \"#utility.yul\":10349:10367   */\n      tag_234\n      tag_102\n      jump\t// in\n    tag_234:\n        /* \"#utility.yul\":10334:10369   */\n    tag_233:\n        /* \"#utility.yul\":10390:10391   */\n      dup3\n        /* \"#utility.yul\":10387:10388   */\n      dup3\n        /* \"#utility.yul\":10383:10392   */\n      mod\n        /* \"#utility.yul\":10378:10392   */\n      swap1\n      pop\n        /* \"#utility.yul\":10222:10398   */\n      swap3\n      swap2\n      pop\n      pop\n      jump\t// out\n        /* \"#utility.yul\":10404:10545   */\n    tag_103:\n        /* \"#utility.yul\":10453:10457   */\n      0x00\n        /* \"#utility.yul\":10476:10479   */\n      dup2\n        /* \"#utility.yul\":10468:10479   */\n      swap1\n      pop\n        /* \"#utility.yul\":10499:10502   */\n      dup2\n        /* \"#utility.yul\":10496:10497   */\n      0x00\n        /* \"#utility.yul\":10489:10503   */\n      mstore\n        /* \"#utility.yul\":10533:10537   */\n      0x20\n        /* \"#utility.yul\":10530:10531   */\n      0x00\n        /* \"#utility.yul\":10520:10538   */\n      keccak256\n        /* \"#utility.yul\":10512:10538   */\n      swap1\n      pop\n        /* \"#utility.yul\":10404:10545   */\n      swap2\n      swap1\n      pop\n      jump\t// out\n        /* \"#utility.yul\":10551:10644   */\n    tag_104:\n        /* \"#utility.yul\":10588:10594   */\n      0x00\n        /* \"#utility.yul\":10635:10637   */\n      0x20\n        /* \"#utility.yul\":10630:10632   */\n      0x1f\n        /* \"#utility.yul\":10623:10628   */\n      dup4\n        /* \"#utility.yul\":10619:10633   */\n      add\n        /* \"#utility.yul\":10615:10638   */\n      div\n        /* \"#utility.yul\":10605:10638   */\n      swap1\n      pop\n        /* \"#utility.yul\":10551:10644   */\n      swap2\n      swap1\n      pop\n      jump\t// out\n        /* \"#utility.yul\":10650:10757   */\n    tag_105:\n        /* \"#utility.yul\":10694:10702   */\n      0x00\n        /* \"#utility.yul\":10744:10749   */\n      dup3\n        /* \"#utility.yul\":10738:10742   */\n      dup3\n        /* \"#utility.yul\":10734:10750   */\n      shl\n        /* \"#utility.yul\":10713:10750   */\n      swap1\n      pop\n        /* \"#utility.yul\":10650:10757   */\n      swap3\n      swap2\n      pop\n      pop\n      jump\t// out\n        /* \"#utility.yul\":10763:11156   */\n    tag_106:\n        /* \"#utility.yul\":10832:10838   */\n      0x00\n        /* \"#utility.yul\":10882:10883   */\n      0x08\n        /* \"#utility.yul\":10870:10880   */\n      dup4\n        /* \"#utility.yul\":10866:10884   */\n      mul\n        /* \"#utility.yul\":10905:11002   */\n      tag_239\n        /* \"#utility.yul\":10935:11001   */\n      0xffffffffffffffffffffffffffffffffffffffffffffffffffffffffffffffff\n        /* \"#utility.yul\":10924:10933   */\n      dup3\n        /* \"#utility.yul\":10905:11002   */\n      tag_105\n      jump\t// in\n    tag_239:\n        /* \"#utility.yul\":11023:11062   */\n      tag_240\n        /* \"#utility.yul\":11053:11061   */\n      dup7\n        /* \"#utility.yul\":11042:11051   */\n      dup4\n        /* \"#utility.yul\":11023:11062   */\n      tag_105\n      jump\t// in\n    tag_240:\n        /* \"#utility.yul\":11011:11062   */\n      swap6\n      pop\n        /* \"#utility.yul\":11095:11099   */\n      dup1\n        /* \"#utility.yul\":11091:11100   */\n      not\n        /* \"#utility.yul\":11084:11089   */\n      dup5\n        /* \"#utility.yul\":11080:11101   */\n      and\n        /* \"#utility.yul\":11071:11101   */\n      swap4\n      pop\n        /* \"#utility.yul\":11144:11148   */\n      dup1\n        /* \"#utility.yul\":11134:11142   */\n      dup7\n        /* \"#utility.yul\":11130:11149   */\n      and\n        /* \"#utility.yul\":11123:11128   */\n      dup5\n        /* \"#utility.yul\":11120:11150   */\n      or\n        /* \"#utility.yul\":11110:11150   */\n      swap3\n      pop\n        /* \"#utility.yul\":10839:11156   */\n      pop\n      pop\n        /* \"#utility.yul\":10763:11156   */\n      swap4\n      swap3\n      pop\n      pop\n      pop\n      jump\t// out\n        /* \"#utility.yul\":11162:11222   */\n    tag_107:\n        /* \"#utility.yul\":11190:11193   */\n      0x00\n        /* \"#utility.yul\":11211:11216   */\n      dup2\n        /* \"#utility.yul\":11204:11216   */\n      swap1\n      pop\n        /* \"#utility.yul\":11162:11222   */\n      swap2\n      swap1\n      pop\n      jump\t// out\n        /* \"#utility.yul\":11228:11370   */\n    tag_108:\n        /* \"#utility.yul\":11278:11287   */\n      0x00\n        /* \"#utility.yul\":11311:11364   */\n      tag_243\n        /* \"#utility.yul\":11329:11363   */\n      tag_244\n        /* \"#utility.yul\":11338:11362   */\n      tag_245\n        /* \"#utility.yul\":11356:11361   */\n      dup5\n        /* \"#utility.yul\":11338:11362   */\n      tag_77\n      jump\t// in\n    tag_245:\n        /* \"#utility.yul\":11329:11363   */\n      tag_107\n      jump\t// in\n    tag_244:\n        /* \"#utility.yul\":11311:11364   */\n      tag_77\n      jump\t// in\n    tag_243:\n        /* \"#utility.yul\":11298:11364   */\n      swap1\n      pop\n        /* \"#utility.yul\":11228:11370   */\n      swap2\n      swap1\n      pop\n      jump\t// out\n        /* \"#utility.yul\":11376:11451   */\n    tag_109:\n        /* \"#utility.yul\":11419:11422   */\n      0x00\n        /* \"#utility.yul\":11440:11445   */\n      dup2\n        /* \"#utility.yul\":11433:11445   */\n      swap1\n      pop\n        /* \"#utility.yul\":11376:11451   */\n      swap2\n      swap1\n      pop\n      jump\t// out\n        /* \"#utility.yul\":11457:11726   */\n    tag_110:\n        /* \"#utility.yul\":11567:11606   */\n      tag_248\n        /* \"#utility.yul\":11598:11605   */\n      dup4\n        /* \"#utility.yul\":11567:11606   */\n      tag_108\n      jump\t// in\n    tag_248:\n        /* \"#utility.yul\":11628:11719   */\n      tag_249\n        /* \"#utility.yul\":11677:11718   */\n      tag_250\n        /* \"#utility.yul\":11701:11717   */\n      dup3\n        /* \"#utility.yul\":11677:11718   */\n      tag_109\n      jump\t// in\n    tag_250:\n        /* \"#utility.yul\":11669:11675   */\n      dup5\n        /* \"#utility.yul\":11662:11666   */\n      dup5\n        /* \"#utility.yul\":11656:11667   */\n      sload\n        /* \"#utility.yul\":11628:11719   */\n      tag_106\n      jump\t// in\n    tag_249:\n        /* \"#utility.yul\":11622:11626   */\n      dup3\n        /* \"#utility.yul\":11615:11720   */\n      sstore\n        /* \"#utility.yul\":11533:11726   */\n      pop\n        /* \"#utility.yul\":11457:11726   */\n      pop\n      pop\n      pop\n      jump\t// out\n        /* \"#utility.yul\":11732:11805   */\n    tag_111:\n        /* \"#utility.yul\":11777:11780   */\n      0x00\n        /* \"#utility.yul\":11732:11805   */\n      swap1\n      jump\t// out\n        /* \"#utility.yul\":11811:12000   */\n    tag_112:\n        /* \"#utility.yul\":11888:11920   */\n      tag_253\n      tag_111\n      jump\t// in\n    tag_253:\n        /* \"#utility.yul\":11929:11994   */\n      tag_254\n        /* \"#utility.yul\":11987:11993   */\n      dup2\n        /* \"#utility.yul\":11979:11985   */\n      dup5\n        /* \"#utility.yul\":11973:11977   */\n      dup5\n        /* \"#utility.yul\":11929:11994   */\n      tag_110\n      jump\t// in\n    tag_254:\n        /* \"#utility.yul\":11864:12000   */\n      pop\n        /* \"#utility.yul\":11811:12000   */\n      pop\n      pop\n      jump\t// out\n        /* \"#utility.yul\":12006:12192   */\n    tag_113:\n        /* \"#utility.yul\":12066:12186   */\n    tag_256:\n        /* \"#utility.yul\":12083:12086   */\n      dup2\n        /* \"#utility.yul\":12076:12081   */\n      dup2\n        /* \"#utility.yul\":12073:12087   */\n      lt\n        /* \"#utility.yul\":12066:12186   */\n      iszero\n      tag_258\n      jumpi\n        /* \"#utility.yul\":12137:12176   */\n      tag_259\n        /* \"#utility.yul\":12174:12175   */\n      0x00\n        /* \"#utility.yul\":12167:12172   */\n      dup3\n        /* \"#utility.yul\":12137:12176   */\n      tag_112\n      jump\t// in\n    tag_259:\n        /* \"#utility.yul\":12110:12111   */\n      0x01\n        /* \"#utility.yul\":12103:12108   */\n      dup2\n        /* \"#utility.yul\":12099:12112   */\n      add\n        /* \"#utility.yul\":12090:12112   */\n      swap1\n      pop\n        /* \"#utility.yul\":12066:12186   */\n      jump(tag_256)\n    tag_258:\n        /* \"#utility.yul\":12006:12192   */\n      pop\n      pop\n      jump\t// out\n        /* \"#utility.yul\":12198:12741   */\n    tag_114:\n        /* \"#utility.yul\":12299:12301   */\n      0x1f\n        /* \"#utility.yul\":12294:12297   */\n      dup3\n        /* \"#utility.yul\":12291:12302   */\n      gt\n        /* \"#utility.yul\":12288:12734   */\n      iszero\n      tag_261\n      jumpi\n        /* \"#utility.yul\":12333:12371   */\n      tag_262\n        /* \"#utility.yul\":12365:12370   */\n      dup2\n        /* \"#utility.yul\":12333:12371   */\n      tag_103\n      jump\t// in\n    tag_262:\n        /* \"#utility.yul\":12417:12446   */\n      tag_263\n        /* \"#utility.yul\":12435:12445   */\n      dup5\n        /* \"#utility.yul\":12417:12446   */\n      tag_104\n      jump\t// in\n    tag_263:\n        /* \"#utility.yul\":12407:12415   */\n      dup2\n        /* \"#utility.yul\":12403:12447   */\n      add\n        /* \"#utility.yul\":12600:12602   */\n      0x20\n        /* \"#utility.yul\":12588:12598   */\n      dup6\n        /* \"#utility.yul\":12585:12603   */\n      lt\n        /* \"#utility.yul\":12582:12631   */\n      iszero\n      tag_264\n      jumpi\n        /* \"#utility.yul\":12621:12629   */\n      dup2\n        /* \"#utility.yul\":12606:12629   */\n      swap1\n      pop\n        /* \"#utility.yul\":12582:12631   */\n    tag_264:\n        /* \"#utility.yul\":12644:12724   */\n      tag_265\n        /* \"#utility.yul\":12700:12722   */\n      tag_266\n        /* \"#utility.yul\":12718:12721   */\n      dup6\n        /* \"#utility.yul\":12700:12722   */\n      tag_104\n      jump\t// in\n    tag_266:\n        /* \"#utility.yul\":12690:12698   */\n      dup4\n        /* \"#utility.yul\":12686:12723   */\n      add\n        /* \"#utility.yul\":12673:12684   */\n      dup3\n        /* \"#utility.yul\":12644:12724   */\n      tag_113\n      jump\t// in\n    tag_265:\n        /* \"#utility.yul\":12303:12734   */\n      pop\n      pop\n        /* \"#utility.yul\":12288:12734   */\n    tag_261:\n        /* \"#utility.yul\":12198:12741   */\n      pop\n      pop\n      pop\n      jump\t// out\n        /* \"#utility.yul\":12747:12864   */\n    tag_115:\n        /* \"#utility.yul\":12801:12809   */\n      0x00\n        /* \"#utility.yul\":12851:12856   */\n      dup3\n        /* \"#utility.yul\":12845:12849   */\n      dup3\n        /* \"#utility.yul\":12841:12857   */\n      shr\n        /* \"#utility.yul\":12820:12857   */\n      swap1\n      pop\n        /* \"#utility.yul\":12747:12864   */\n      swap3\n      swap2\n      pop\n      pop\n      jump\t// out\n        /* \"#utility.yul\":12870:13039   */\n    tag_116:\n        /* \"#utility.yul\":12914:12920   */\n      0x00\n        /* \"#utility.yul\":12947:12998   */\n      tag_269\n        /* \"#utility.yul\":12995:12996   */\n      0x00\n        /* \"#utility.yul\":12991:12997   */\n      not\n        /* \"#utility.yul\":12983:12988   */\n      dup5\n        /* \"#utility.yul\":12980:12981   */\n      0x08\n        /* \"#utility.yul\":12976:12989   */\n      mul\n        /* \"#utility.yul\":12947:12998   */\n      tag_115\n      jump\t// in\n    tag_269:\n        /* \"#utility.yul\":12943:12999   */\n      not\n        /* \"#utility.yul\":13028:13032   */\n      dup1\n        /* \"#utility.yul\":13022:13026   */\n      dup4\n        /* \"#utility.yul\":13018:13033   */\n      and\n        /* \"#utility.yul\":13008:13033   */\n      swap2\n      pop\n        /* \"#utility.yul\":12921:13039   */\n      pop\n        /* \"#utility.yul\":12870:13039   */\n      swap3\n      swap2\n      pop\n      pop\n      jump\t// out\n        /* \"#utility.yul\":13044:13339   */\n    tag_117:\n        /* \"#utility.yul\":13120:13124   */\n      0x00\n        /* \"#utility.yul\":13266:13295   */\n      tag_271\n        /* \"#utility.yul\":13291:13294   */\n      dup4\n        /* \"#utility.yul\":13285:13289   */\n      dup4\n        /* \"#utility.yul\":13266:13295   */\n      tag_116\n      jump\t// in\n    tag_271:\n        /* \"#utility.yul\":13258:13295   */\n      swap2\n      pop\n        /* \"#utility.yul\":13328:13331   */\n      dup3\n        /* \"#utility.yul\":13325:13326   */\n      0x02\n        /* \"#utility.yul\":13321:13332   */\n      mul\n        /* \"#utility.yul\":13315:13319   */\n      dup3\n        /* \"#utility.yul\":13312:13333   */\n      or\n        /* \"#utility.yul\":13304:13333   */\n      swap1\n      pop\n        /* \"#utility.yul\":13044:13339   */\n      swap3\n      swap2\n      pop\n      pop\n      jump\t// out\n        /* \"#utility.yul\":13344:14739   */\n    tag_58:\n        /* \"#utility.yul\":13461:13498   */\n      tag_273\n        /* \"#utility.yul\":13494:13497   */\n      dup3\n        /* \"#utility.yul\":13461:13498   */\n      tag_84\n      jump\t// in\n    tag_273:\n        /* \"#utility.yul\":13563:13581   */\n      0xffffffffffffffff\n        /* \"#utility.yul\":13555:13561   */\n      dup2\n        /* \"#utility.yul\":13552:13582   */\n      gt\n        /* \"#utility.yul\":13549:13605   */\n      iszero\n      tag_274\n      jumpi\n        /* \"#utility.yul\":13585:13603   */\n      tag_275\n      tag_25\n      jump\t// in\n    tag_275:\n        /* \"#utility.yul\":13549:13605   */\n    tag_274:\n        /* \"#utility.yul\":13629:13667   */\n      tag_276\n        /* \"#utility.yul\":13661:13665   */\n      dup3\n        /* \"#utility.yul\":13655:13666   */\n      sload\n        /* \"#utility.yul\":13629:13667   */\n      tag_40\n      jump\t// in\n    tag_276:\n        /* \"#utility.yul\":13714:13781   */\n      tag_277\n        /* \"#utility.yul\":13774:13780   */\n      dup3\n        /* \"#utility.yul\":13766:13772   */\n      dup3\n        /* \"#utility.yul\":13760:13764   */\n      dup6\n        /* \"#utility.yul\":13714:13781   */\n      tag_114\n      jump\t// in\n    tag_277:\n        /* \"#utility.yul\":13808:13809   */\n      0x00\n        /* \"#utility.yul\":13832:13836   */\n      0x20\n        /* \"#utility.yul\":13819:13836   */\n      swap1\n      pop\n        /* \"#utility.yul\":13864:13866   */\n      0x1f\n        /* \"#utility.yul\":13856:13862   */\n      dup4\n        /* \"#utility.yul\":13853:13867   */\n      gt\n        /* \"#utility.yul\":13881:13882   */\n      0x01\n        /* \"#utility.yul\":13876:14494   */\n      dup2\n      eq\n      tag_279\n      jumpi\n        /* \"#utility.yul\":14538:14539   */\n      0x00\n        /* \"#utility.yul\":14555:14561   */\n      dup5\n        /* \"#utility.yul\":14552:14629   */\n      iszero\n      tag_280\n      jumpi\n        /* \"#utility.yul\":14604:14613   */\n      dup3\n        /* \"#utility.yul\":14599:14602   */\n      dup8\n        /* \"#utility.yul\":14595:14614   */\n      add\n        /* \"#utility.yul\":14589:14615   */\n      mload\n        /* \"#utility.yul\":14580:14615   */\n      swap1\n      pop\n        /* \"#utility.yul\":14552:14629   */\n    tag_280:\n        /* \"#utility.yul\":14655:14722   */\n      tag_281\n        /* \"#utility.yul\":14715:14721   */\n      dup6\n        /* \"#utility.yul\":14708:14713   */\n      dup3\n        /* \"#utility.yul\":14655:14722   */\n      tag_117\n      jump\t// in\n    tag_281:\n        /* \"#utility.yul\":14649:14653   */\n      dup7\n        /* \"#utility.yul\":14642:14723   */\n      sstore\n        /* \"#utility.yul\":14511:14733   */\n      pop\n        /* \"#utility.yul\":13846:14733   */\n      jump(tag_278)\n        /* \"#utility.yul\":13876:14494   */\n    tag_279:\n        /* \"#utility.yul\":13928:13932   */\n      0x1f\n        /* \"#utility.yul\":13924:13933   */\n      not\n        /* \"#utility.yul\":13916:13922   */\n      dup5\n        /* \"#utility.yul\":13912:13934   */\n      and\n        /* \"#utility.yul\":13962:13999   */\n      tag_282\n        /* \"#utility.yul\":13994:13998   */\n      dup7\n        /* \"#utility.yul\":13962:13999   */\n      tag_103\n      jump\t// in\n    tag_282:\n        /* \"#utility.yul\":14021:14022   */\n      0x00\n        /* \"#utility.yul\":14035:14243   */\n    tag_283:\n        /* \"#utility.yul\":14049:14056   */\n      dup3\n        /* \"#utility.yul\":14046:14047   */\n      dup2\n        /* \"#utility.yul\":14043:14057   */\n      lt\n        /* \"#utility.yul\":14035:14243   */\n      iszero\n      tag_285\n      jumpi\n        /* \"#utility.yul\":14128:14137   */\n      dup5\n        /* \"#utility.yul\":14123:14126   */\n      dup10\n        /* \"#utility.yul\":14119:14138   */\n      add\n        /* \"#utility.yul\":14113:14139   */\n      mload\n        /* \"#utility.yul\":14105:14111   */\n      dup3\n        /* \"#utility.yul\":14098:14140   */\n      sstore\n        /* \"#utility.yul\":14179:14180   */\n      0x01\n        /* \"#utility.yul\":14171:14177   */\n      dup3\n        /* \"#utility.yul\":14167:14181   */\n      add\n        /* \"#utility.yul\":14157:14181   */\n      swap2\n      pop\n        /* \"#utility.yul\":14226:14228   */\n      0x20\n        /* \"#utility.yul\":14215:14224   */\n      dup6\n        /* \"#utility.yul\":14211:14229   */\n      add\n        /* \"#utility.yul\":14198:14229   */\n      swap5\n      pop\n        /* \"#utility.yul\":14072:14076   */\n      0x20\n        /* \"#utility.yul\":14069:14070   */\n      dup2\n        /* \"#utility.yul\":14065:14077   */\n      add\n        /* \"#utility.yul\":14060:14077   */\n      swap1\n      pop\n        /* \"#utility.yul\":14035:14243   */\n      jump(tag_283)\n    tag_285:\n        /* \"#utility.yul\":14271:14277   */\n      dup7\n        /* \"#utility.yul\":14262:14269   */\n      dup4\n        /* \"#utility.yul\":14259:14278   */\n      lt\n        /* \"#utility.yul\":14256:14435   */\n      iszero\n      tag_286\n      jumpi\n        /* \"#utility.yul\":14329:14338   */\n      dup5\n        /* \"#utility.yul\":14324:14327   */\n      dup10\n        /* \"#utility.yul\":14320:14339   */\n      add\n        /* \"#utility.yul\":14314:14340   */\n      mload\n        /* \"#utility.yul\":14372:14420   */\n      tag_287\n        /* \"#utility.yul\":14414:14418   */\n      0x1f\n        /* \"#utility.yul\":14406:14412   */\n      dup10\n        /* \"#utility.yul\":14402:14419   */\n      and\n        /* \"#utility.yul\":14391:14400   */\n      dup3\n        /* \"#utility.yul\":14372:14420   */\n      tag_116\n      jump\t// in\n    tag_287:\n        /* \"#utility.yul\":14364:14370   */\n      dup4\n        /* \"#utility.yul\":14357:14421   */\n      sstore\n        /* \"#utility.yul\":14279:14435   */\n      pop\n        /* \"#utility.yul\":14256:14435   */\n    tag_286:\n        /* \"#utility.yul\":14481:14482   */\n      0x01\n        /* \"#utility.yul\":14477:14478   */\n      0x02\n        /* \"#utility.yul\":14469:14475   */\n      dup9\n        /* \"#utility.yul\":14465:14479   */\n      mul\n        /* \"#utility.yul\":14461:14483   */\n      add\n        /* \"#utility.yul\":14455:14459   */\n      dup9\n        /* \"#utility.yul\":14448:14484   */\n      sstore\n        /* \"#utility.yul\":13883:14494   */\n      pop\n      pop\n      pop\n        /* \"#utility.yul\":13846:14733   */\n    tag_278:\n      pop\n        /* \"#utility.yul\":13436:14739   */\n      pop\n      pop\n      pop\n        /* \"#utility.yul\":13344:14739   */\n      pop\n      pop\n      jump\t// out\n        /* \"#utility.yul\":14745:14939   */\n    tag_60:\n        /* \"#utility.yul\":14785:14789   */\n      0x00\n        /* \"#utility.yul\":14805:14825   */\n      tag_289\n        /* \"#utility.yul\":14823:14824   */\n      dup3\n        /* \"#utility.yul\":14805:14825   */\n      tag_77\n      jump\t// in\n    tag_289:\n        /* \"#utility.yul\":14800:14825   */\n      swap2\n      pop\n        /* \"#utility.yul\":14839:14859   */\n      tag_290\n        /* \"#utility.yul\":14857:14858   */\n      dup4\n        /* \"#utility.yul\":14839:14859   */\n      tag_77\n      jump\t// in\n    tag_290:\n        /* \"#utility.yul\":14834:14859   */\n      swap3\n      pop\n        /* \"#utility.yul\":14883:14884   */\n      dup3\n        /* \"#utility.yul\":14880:14881   */\n      dup3\n        /* \"#utility.yul\":14876:14885   */\n      sub\n        /* \"#utility.yul\":14868:14885   */\n      swap1\n      pop\n        /* \"#utility.yul\":14907:14908   */\n      dup2\n        /* \"#utility.yul\":14901:14905   */\n      dup2\n        /* \"#utility.yul\":14898:14909   */\n      gt\n        /* \"#utility.yul\":14895:14932   */\n      iszero\n      tag_291\n      jumpi\n        /* \"#utility.yul\":14912:14930   */\n      tag_292\n      tag_98\n      jump\t// in\n    tag_292:\n        /* \"#utility.yul\":14895:14932   */\n    tag_291:\n        /* \"#utility.yul\":14745:14939   */\n      swap3\n      swap2\n      pop\n      pop\n      jump\t// out\n        /* \"#utility.yul\":14945:15478   */\n    tag_64:\n        /* \"#utility.yul\":15114:15118   */\n      0x00\n        /* \"#utility.yul\":15152:15154   */\n      0x60\n        /* \"#utility.yul\":15141:15150   */\n      dup3\n        /* \"#utility.yul\":15137:15155   */\n      add\n        /* \"#utility.yul\":15129:15155   */\n      swap1\n      pop\n        /* \"#utility.yul\":15165:15236   */\n      tag_294\n        /* \"#utility.yul\":15233:15234   */\n      0x00\n        /* \"#utility.yul\":15222:15231   */\n      dup4\n        /* \"#utility.yul\":15218:15235   */\n      add\n        /* \"#utility.yul\":15209:15215   */\n      dup7\n        /* \"#utility.yul\":15165:15236   */\n      tag_89\n      jump\t// in\n    tag_294:\n        /* \"#utility.yul\":15283:15292   */\n      dup2\n        /* \"#utility.yul\":15277:15281   */\n      dup2\n        /* \"#utility.yul\":15273:15293   */\n      sub\n        /* \"#utility.yul\":15268:15270   */\n      0x20\n        /* \"#utility.yul\":15257:15266   */\n      dup4\n        /* \"#utility.yul\":15253:15271   */\n      add\n        /* \"#utility.yul\":15246:15294   */\n      mstore\n        /* \"#utility.yul\":15311:15389   */\n      tag_295\n        /* \"#utility.yul\":15384:15388   */\n      dup2\n        /* \"#utility.yul\":15375:15381   */\n      dup6\n        /* \"#utility.yul\":15311:15389   */\n      tag_88\n      jump\t// in\n    tag_295:\n        /* \"#utility.yul\":15303:15389   */\n      swap1\n      pop\n        /* \"#utility.yul\":15399:15471   */\n      tag_296\n        /* \"#utility.yul\":15467:15469   */\n      0x40\n        /* \"#utility.yul\":15456:15465   */\n      dup4\n        /* \"#utility.yul\":15452:15470   */\n      add\n        /* \"#utility.yul\":15443:15449   */\n      dup5\n        /* \"#utility.yul\":15399:15471   */\n      tag_89\n      jump\t// in\n    tag_296:\n        /* \"#utility.yul\":14945:15478   */\n      swap5\n      swap4\n      pop\n      pop\n      pop\n      pop\n      jump\t// out\n\n    auxdata: 0xa264697066735822122013811781177bee35ff907f25edc256550a7a220e3cf07091fb2d7d753869f25f64736f6c63430008120033\n}\n",
				"bytecode": {
					"linkReferences": {},
					"object": "60806040526010600055600054600a6200001a9190620001be565b6001553480156200002a57600080fd5b506200020f565b7f4e487b7100000000000000000000000000000000000000000000000000000000600052601160045260246000fd5b60008160011c9050919050565b6000808291508390505b6001851115620000bf5780860481111562000097576200009662000031565b5b6001851615620000a75780820291505b8081029050620000b78562000060565b945062000077565b94509492505050565b600082620000da5760019050620001ad565b81620000ea5760009050620001ad565b81600181146200010357600281146200010e5762000144565b6001915050620001ad565b60ff84111562000123576200012262000031565b5b8360020a9150848211156200013d576200013c62000031565b5b50620001ad565b5060208310610133831016604e8410600b84101617156200017e5782820a90508381111562000178576200017762000031565b5b620001ad565b6200018d84848460016200006d565b92509050818404811115620001a757620001a662000031565b5b81810290505b9392505050565b6000819050919050565b6000620001cb82620001b4565b9150620001d883620001b4565b9250620002077fffffffffffffffffffffffffffffffffffffffffffffffffffffffffffffffff8484620000c8565b905092915050565b610db0806200021f6000396000f3fe608060405234801561001057600080fd5b50600436106100415760003560e01c806372380aea146100465780639955363614610076578063ae44a105146100a7575b600080fd5b610060600480360381019061005b9190610514565b6100c3565b60405161006d9190610609565b60405180910390f35b610090600480360381019061008b9190610657565b61021b565b60405161009e929190610723565b60405180910390f35b6100c160048036038101906100bc9190610888565b6102d7565b005b6060600080600460008573ffffffffffffffffffffffffffffffffffffffff1673ffffffffffffffffffffffffffffffffffffffff16815260200190815260200160002054905060008167ffffffffffffffff8111156101265761012561075d565b5b6040519080825280602002602001820160405280156101545781602001602082028036833780820191505090505b50905060005b60028054905081101561020f578573ffffffffffffffffffffffffffffffffffffffff166003600083815260200190815260200160002060009054906101000a900473ffffffffffffffffffffffffffffffffffffffff1673ffffffffffffffffffffffffffffffffffffffff16036101fc57808285815181106101e1576101e06108d1565b5b60200260200101818152505083806101f89061092f565b9450505b80806102079061092f565b91505061015a565b50809350505050919050565b6002818154811061022b57600080fd5b906000526020600020906002020160009150905080600001805461024e906109a6565b80601f016020809104026020016040519081016040528092919081815260200182805461027a906109a6565b80156102c75780601f1061029c576101008083540402835291602001916102c7565b820191906000526020600020905b8154815290600101906020018083116102aa57829003601f168201915b5050505050908060010154905082565b60006102e2826102f2565b90506102ee8282610337565b5050565b600080826040516020016103069190610a13565b6040516020818303038152906040528051906020012060001c90506001548161032f9190610a59565b915050919050565b60026040518060400160405280848152602001838152509080600181540180825580915050600190039060005260206000209060020201600090919091909150600082015181600001908161038c9190610c36565b50602082015181600101555050600060016002805490506103ad9190610d08565b90506103b8816103f8565b7f0638820bbfa7f1ab0bfb9054649b6198da60bd10654cbfe5c50d26b1bec658788184846040516103eb93929190610d3c565b60405180910390a1505050565b336003600083815260200190815260200160002060006101000a81548173ffffffffffffffffffffffffffffffffffffffff021916908373ffffffffffffffffffffffffffffffffffffffff160217905550600460003373ffffffffffffffffffffffffffffffffffffffff1673ffffffffffffffffffffffffffffffffffffffff168152602001908152602001600020600081548092919061049a9061092f565b919050555050565b6000604051905090565b600080fd5b600080fd5b600073ffffffffffffffffffffffffffffffffffffffff82169050919050565b60006104e1826104b6565b9050919050565b6104f1816104d6565b81146104fc57600080fd5b50565b60008135905061050e816104e8565b92915050565b60006020828403121561052a576105296104ac565b5b6000610538848285016104ff565b91505092915050565b600081519050919050565b600082825260208201905092915050565b6000819050602082019050919050565b6000819050919050565b6105808161056d565b82525050565b60006105928383610577565b60208301905092915050565b6000602082019050919050565b60006105b682610541565b6105c0818561054c565b93506105cb8361055d565b8060005b838110156105fc5781516105e38882610586565b97506105ee8361059e565b9250506001810190506105cf565b5085935050505092915050565b6000602082019050818103600083015261062381846105ab565b905092915050565b6106348161056d565b811461063f57600080fd5b50565b6000813590506106518161062b565b92915050565b60006020828403121561066d5761066c6104ac565b5b600061067b84828501610642565b91505092915050565b600081519050919050565b600082825260208201905092915050565b60005b838110156106be5780820151818401526020810190506106a3565b60008484015250505050565b6000601f19601f8301169050919050565b60006106e682610684565b6106f0818561068f565b93506107008185602086016106a0565b610709816106ca565b840191505092915050565b61071d8161056d565b82525050565b6000604082019050818103600083015261073d81856106db565b905061074c6020830184610714565b9392505050565b600080fd5b600080fd5b7f4e487b7100000000000000000000000000000000000000000000000000000000600052604160045260246000fd5b610795826106ca565b810181811067ffffffffffffffff821117156107b4576107b361075d565b5b80604052505050565b60006107c76104a2565b90506107d3828261078c565b919050565b600067ffffffffffffffff8211156107f3576107f261075d565b5b6107fc826106ca565b9050602081019050919050565b82818337600083830152505050565b600061082b610826846107d8565b6107bd565b90508281526020810184848401111561084757610846610758565b5b610852848285610809565b509392505050565b600082601f83011261086f5761086e610753565b5b813561087f848260208601610818565b91505092915050565b60006020828403121561089e5761089d6104ac565b5b600082013567ffffffffffffffff8111156108bc576108bb6104b1565b5b6108c88482850161085a565b91505092915050565b7f4e487b7100000000000000000000000000000000000000000000000000000000600052603260045260246000fd5b7f4e487b7100000000000000000000000000000000000000000000000000000000600052601160045260246000fd5b600061093a8261056d565b91507fffffffffffffffffffffffffffffffffffffffffffffffffffffffffffffffff820361096c5761096b610900565b5b600182019050919050565b7f4e487b7100000000000000000000000000000000000000000000000000000000600052602260045260246000fd5b600060028204905060018216806109be57607f821691505b6020821081036109d1576109d0610977565b5b50919050565b600081905092915050565b60006109ed82610684565b6109f781856109d7565b9350610a078185602086016106a0565b80840191505092915050565b6000610a1f82846109e2565b915081905092915050565b7f4e487b7100000000000000000000000000000000000000000000000000000000600052601260045260246000fd5b6000610a648261056d565b9150610a6f8361056d565b925082610a7f57610a7e610a2a565b5b828206905092915050565b60008190508160005260206000209050919050565b60006020601f8301049050919050565b600082821b905092915050565b600060088302610aec7fffffffffffffffffffffffffffffffffffffffffffffffffffffffffffffffff82610aaf565b610af68683610aaf565b95508019841693508086168417925050509392505050565b6000819050919050565b6000610b33610b2e610b298461056d565b610b0e565b61056d565b9050919050565b6000819050919050565b610b4d83610b18565b610b61610b5982610b3a565b848454610abc565b825550505050565b600090565b610b76610b69565b610b81818484610b44565b505050565b5b81811015610ba557610b9a600082610b6e565b600181019050610b87565b5050565b601f821115610bea57610bbb81610a8a565b610bc484610a9f565b81016020851015610bd3578190505b610be7610bdf85610a9f565b830182610b86565b50505b505050565b600082821c905092915050565b6000610c0d60001984600802610bef565b1980831691505092915050565b6000610c268383610bfc565b9150826002028217905092915050565b610c3f82610684565b67ffffffffffffffff811115610c5857610c5761075d565b5b610c6282546109a6565b610c6d828285610ba9565b600060209050601f831160018114610ca05760008415610c8e578287015190505b610c988582610c1a565b865550610d00565b601f198416610cae86610a8a565b60005b82811015610cd657848901518255600182019150602085019450602081019050610cb1565b86831015610cf35784890151610cef601f891682610bfc565b8355505b6001600288020188555050505b505050505050565b6000610d138261056d565b9150610d1e8361056d565b9250828203905081811115610d3657610d35610900565b5b92915050565b6000606082019050610d516000830186610714565b8181036020830152610d6381856106db565b9050610d726040830184610714565b94935050505056fea264697066735822122013811781177bee35ff907f25edc256550a7a220e3cf07091fb2d7d753869f25f64736f6c63430008120033",
					"opcodes": "PUSH1 0x80 PUSH1 0x40 MSTORE PUSH1 0x10 PUSH1 0x0 SSTORE PUSH1 0x0 SLOAD PUSH1 0xA PUSH3 0x1A SWAP2 SWAP1 PUSH3 0x1BE JUMP JUMPDEST PUSH1 0x1 SSTORE CALLVALUE DUP1 ISZERO PUSH3 0x2A JUMPI PUSH1 0x0 DUP1 REVERT JUMPDEST POP PUSH3 0x20F JUMP JUMPDEST PUSH32 0x4E487B7100000000000000000000000000000000000000000000000000000000 PUSH1 0x0 MSTORE PUSH1 0x11 PUSH1 0x4 MSTORE PUSH1 0x24 PUSH1 0x0 REVERT JUMPDEST PUSH1 0x0 DUP2 PUSH1 0x1 SHR SWAP1 POP SWAP2 SWAP1 POP JUMP JUMPDEST PUSH1 0x0 DUP1 DUP3 SWAP2 POP DUP4 SWAP1 POP JUMPDEST PUSH1 0x1 DUP6 GT ISZERO PUSH3 0xBF JUMPI DUP1 DUP7 DIV DUP2 GT ISZERO PUSH3 0x97 JUMPI PUSH3 0x96 PUSH3 0x31 JUMP JUMPDEST JUMPDEST PUSH1 0x1 DUP6 AND ISZERO PUSH3 0xA7 JUMPI DUP1 DUP3 MUL SWAP2 POP JUMPDEST DUP1 DUP2 MUL SWAP1 POP PUSH3 0xB7 DUP6 PUSH3 0x60 JUMP JUMPDEST SWAP5 POP PUSH3 0x77 JUMP JUMPDEST SWAP5 POP SWAP5 SWAP3 POP POP POP JUMP JUMPDEST PUSH1 0x0 DUP3 PUSH3 0xDA JUMPI PUSH1 0x1 SWAP1 POP PUSH3 0x1AD JUMP JUMPDEST DUP2 PUSH3 0xEA JUMPI PUSH1 0x0 SWAP1 POP PUSH3 0x1AD JUMP JUMPDEST DUP2 PUSH1 0x1 DUP2 EQ PUSH3 0x103 JUMPI PUSH1 0x2 DUP2 EQ PUSH3 0x10E JUMPI PUSH3 0x144 JUMP JUMPDEST PUSH1 0x1 SWAP2 POP POP PUSH3 0x1AD JUMP JUMPDEST PUSH1 0xFF DUP5 GT ISZERO PUSH3 0x123 JUMPI PUSH3 0x122 PUSH3 0x31 JUMP JUMPDEST JUMPDEST DUP4 PUSH1 0x2 EXP SWAP2 POP DUP5 DUP3 GT ISZERO PUSH3 0x13D JUMPI PUSH3 0x13C PUSH3 0x31 JUMP JUMPDEST JUMPDEST POP PUSH3 0x1AD JUMP JUMPDEST POP PUSH1 0x20 DUP4 LT PUSH2 0x133 DUP4 LT AND PUSH1 0x4E DUP5 LT PUSH1 0xB DUP5 LT AND OR ISZERO PUSH3 0x17E JUMPI DUP3 DUP3 EXP SWAP1 POP DUP4 DUP2 GT ISZERO PUSH3 0x178 JUMPI PUSH3 0x177 PUSH3 0x31 JUMP JUMPDEST JUMPDEST PUSH3 0x1AD JUMP JUMPDEST PUSH3 0x18D DUP5 DUP5 DUP5 PUSH1 0x1 PUSH3 0x6D JUMP JUMPDEST SWAP3 POP SWAP1 POP DUP2 DUP5 DIV DUP2 GT ISZERO PUSH3 0x1A7 JUMPI PUSH3 0x1A6 PUSH3 0x31 JUMP JUMPDEST JUMPDEST DUP2 DUP2 MUL SWAP1 POP JUMPDEST SWAP4 SWAP3 POP POP POP JUMP JUMPDEST PUSH1 0x0 DUP2 SWAP1 POP SWAP2 SWAP1 POP JUMP JUMPDEST PUSH1 0x0 PUSH3 0x1CB DUP3 PUSH3 0x1B4 JUMP JUMPDEST SWAP2 POP PUSH3 0x1D8 DUP4 PUSH3 0x1B4 JUMP JUMPDEST SWAP3 POP PUSH3 0x207 PUSH32 0xFFFFFFFFFFFFFFFFFFFFFFFFFFFFFFFFFFFFFFFFFFFFFFFFFFFFFFFFFFFFFFFF DUP5 DUP5 PUSH3 0xC8 JUMP JUMPDEST SWAP1 POP SWAP3 SWAP2 POP POP JUMP JUMPDEST PUSH2 0xDB0 DUP1 PUSH3 0x21F PUSH1 0x0 CODECOPY PUSH1 0x0 RETURN INVALID PUSH1 0x80 PUSH1 0x40 MSTORE CALLVALUE DUP1 ISZERO PUSH2 0x10 JUMPI PUSH1 0x0 DUP1 REVERT JUMPDEST POP PUSH1 0x4 CALLDATASIZE LT PUSH2 0x41 JUMPI PUSH1 0x0 CALLDATALOAD PUSH1 0xE0 SHR DUP1 PUSH4 0x72380AEA EQ PUSH2 0x46 JUMPI DUP1 PUSH4 0x99553636 EQ PUSH2 0x76 JUMPI DUP1 PUSH4 0xAE44A105 EQ PUSH2 0xA7 JUMPI JUMPDEST PUSH1 0x0 DUP1 REVERT JUMPDEST PUSH2 0x60 PUSH1 0x4 DUP1 CALLDATASIZE SUB DUP2 ADD SWAP1 PUSH2 0x5B SWAP2 SWAP1 PUSH2 0x514 JUMP JUMPDEST PUSH2 0xC3 JUMP JUMPDEST PUSH1 0x40 MLOAD PUSH2 0x6D SWAP2 SWAP1 PUSH2 0x609 JUMP JUMPDEST PUSH1 0x40 MLOAD DUP1 SWAP2 SUB SWAP1 RETURN JUMPDEST PUSH2 0x90 PUSH1 0x4 DUP1 CALLDATASIZE SUB DUP2 ADD SWAP1 PUSH2 0x8B SWAP2 SWAP1 PUSH2 0x657 JUMP JUMPDEST PUSH2 0x21B JUMP JUMPDEST PUSH1 0x40 MLOAD PUSH2 0x9E SWAP3 SWAP2 SWAP1 PUSH2 0x723 JUMP JUMPDEST PUSH1 0x40 MLOAD DUP1 SWAP2 SUB SWAP1 RETURN JUMPDEST PUSH2 0xC1 PUSH1 0x4 DUP1 CALLDATASIZE SUB DUP2 ADD SWAP1 PUSH2 0xBC SWAP2 SWAP1 PUSH2 0x888 JUMP JUMPDEST PUSH2 0x2D7 JUMP JUMPDEST STOP JUMPDEST PUSH1 0x60 PUSH1 0x0 DUP1 PUSH1 0x4 PUSH1 0x0 DUP6 PUSH20 0xFFFFFFFFFFFFFFFFFFFFFFFFFFFFFFFFFFFFFFFF AND PUSH20 0xFFFFFFFFFFFFFFFFFFFFFFFFFFFFFFFFFFFFFFFF AND DUP2 MSTORE PUSH1 0x20 ADD SWAP1 DUP2 MSTORE PUSH1 0x20 ADD PUSH1 0x0 KECCAK256 SLOAD SWAP1 POP PUSH1 0x0 DUP2 PUSH8 0xFFFFFFFFFFFFFFFF DUP2 GT ISZERO PUSH2 0x126 JUMPI PUSH2 0x125 PUSH2 0x75D JUMP JUMPDEST JUMPDEST PUSH1 0x40 MLOAD SWAP1 DUP1 DUP3 MSTORE DUP1 PUSH1 0x20 MUL PUSH1 0x20 ADD DUP3 ADD PUSH1 0x40 MSTORE DUP1 ISZERO PUSH2 0x154 JUMPI DUP2 PUSH1 0x20 ADD PUSH1 0x20 DUP3 MUL DUP1 CALLDATASIZE DUP4 CALLDATACOPY DUP1 DUP3 ADD SWAP2 POP POP SWAP1 POP JUMPDEST POP SWAP1 POP PUSH1 0x0 JUMPDEST PUSH1 0x2 DUP1 SLOAD SWAP1 POP DUP2 LT ISZERO PUSH2 0x20F JUMPI DUP6 PUSH20 0xFFFFFFFFFFFFFFFFFFFFFFFFFFFFFFFFFFFFFFFF AND PUSH1 0x3 PUSH1 0x0 DUP4 DUP2 MSTORE PUSH1 0x20 ADD SWAP1 DUP2 MSTORE PUSH1 0x20 ADD PUSH1 0x0 KECCAK256 PUSH1 0x0 SWAP1 SLOAD SWAP1 PUSH2 0x100 EXP SWAP1 DIV PUSH20 0xFFFFFFFFFFFFFFFFFFFFFFFFFFFFFFFFFFFFFFFF AND PUSH20 0xFFFFFFFFFFFFFFFFFFFFFFFFFFFFFFFFFFFFFFFF AND SUB PUSH2 0x1FC JUMPI DUP1 DUP3 DUP6 DUP2 MLOAD DUP2 LT PUSH2 0x1E1 JUMPI PUSH2 0x1E0 PUSH2 0x8D1 JUMP JUMPDEST JUMPDEST PUSH1 0x20 MUL PUSH1 0x20 ADD ADD DUP2 DUP2 MSTORE POP POP DUP4 DUP1 PUSH2 0x1F8 SWAP1 PUSH2 0x92F JUMP JUMPDEST SWAP5 POP POP JUMPDEST DUP1 DUP1 PUSH2 0x207 SWAP1 PUSH2 0x92F JUMP JUMPDEST SWAP2 POP POP PUSH2 0x15A JUMP JUMPDEST POP DUP1 SWAP4 POP POP POP POP SWAP2 SWAP1 POP JUMP JUMPDEST PUSH1 0x2 DUP2 DUP2 SLOAD DUP2 LT PUSH2 0x22B JUMPI PUSH1 0x0 DUP1 REVERT JUMPDEST SWAP1 PUSH1 0x0 MSTORE PUSH1 0x20 PUSH1 0x0 KECCAK256 SWAP1 PUSH1 0x2 MUL ADD PUSH1 0x0 SWAP2 POP SWAP1 POP DUP1 PUSH1 0x0 ADD DUP1 SLOAD PUSH2 0x24E SWAP1 PUSH2 0x9A6 JUMP JUMPDEST DUP1 PUSH1 0x1F ADD PUSH1 0x20 DUP1 SWAP2 DIV MUL PUSH1 0x20 ADD PUSH1 0x40 MLOAD SWAP1 DUP2 ADD PUSH1 0x40 MSTORE DUP1 SWAP3 SWAP2 SWAP1 DUP2 DUP2 MSTORE PUSH1 0x20 ADD DUP3 DUP1 SLOAD PUSH2 0x27A SWAP1 PUSH2 0x9A6 JUMP JUMPDEST DUP1 ISZERO PUSH2 0x2C7 JUMPI DUP1 PUSH1 0x1F LT PUSH2 0x29C JUMPI PUSH2 0x100 DUP1 DUP4 SLOAD DIV MUL DUP4 MSTORE SWAP2 PUSH1 0x20 ADD SWAP2 PUSH2 0x2C7 JUMP JUMPDEST DUP3 ADD SWAP2 SWAP1 PUSH1 0x0 MSTORE PUSH1 0x20 PUSH1 0x0 KECCAK256 SWAP1 JUMPDEST DUP2 SLOAD DUP2 MSTORE SWAP1 PUSH1 0x1 ADD SWAP1 PUSH1 0x20 ADD DUP1 DUP4 GT PUSH2 0x2AA JUMPI DUP3 SWAP1 SUB PUSH1 0x1F AND DUP3 ADD SWAP2 JUMPDEST POP POP POP POP POP SWAP1 DUP1 PUSH1 0x1 ADD SLOAD SWAP1 POP DUP3 JUMP JUMPDEST PUSH1 0x0 PUSH2 0x2E2 DUP3 PUSH2 0x2F2 JUMP JUMPDEST SWAP1 POP PUSH2 0x2EE DUP3 DUP3 PUSH2 0x337 JUMP JUMPDEST POP POP JUMP JUMPDEST PUSH1 0x0 DUP1 DUP3 PUSH1 0x40 MLOAD PUSH1 0x20 ADD PUSH2 0x306 SWAP2 SWAP1 PUSH2 0xA13 JUMP JUMPDEST PUSH1 0x40 MLOAD PUSH1 0x20 DUP2 DUP4 SUB SUB DUP2 MSTORE SWAP1 PUSH1 0x40 MSTORE DUP1 MLOAD SWAP1 PUSH1 0x20 ADD KECCAK256 PUSH1 0x0 SHR SWAP1 POP PUSH1 0x1 SLOAD DUP2 PUSH2 0x32F SWAP2 SWAP1 PUSH2 0xA59 JUMP JUMPDEST SWAP2 POP POP SWAP2 SWAP1 POP JUMP JUMPDEST PUSH1 0x2 PUSH1 0x40 MLOAD DUP1 PUSH1 0x40 ADD PUSH1 0x40 MSTORE DUP1 DUP5 DUP2 MSTORE PUSH1 0x20 ADD DUP4 DUP2 MSTORE POP SWAP1 DUP1 PUSH1 0x1 DUP2 SLOAD ADD DUP1 DUP3 SSTORE DUP1 SWAP2 POP POP PUSH1 0x1 SWAP1 SUB SWAP1 PUSH1 0x0 MSTORE PUSH1 0x20 PUSH1 0x0 KECCAK256 SWAP1 PUSH1 0x2 MUL ADD PUSH1 0x0 SWAP1 SWAP2 SWAP1 SWAP2 SWAP1 SWAP2 POP PUSH1 0x0 DUP3 ADD MLOAD DUP2 PUSH1 0x0 ADD SWAP1 DUP2 PUSH2 0x38C SWAP2 SWAP1 PUSH2 0xC36 JUMP JUMPDEST POP PUSH1 0x20 DUP3 ADD MLOAD DUP2 PUSH1 0x1 ADD SSTORE POP POP PUSH1 0x0 PUSH1 0x1 PUSH1 0x2 DUP1 SLOAD SWAP1 POP PUSH2 0x3AD SWAP2 SWAP1 PUSH2 0xD08 JUMP JUMPDEST SWAP1 POP PUSH2 0x3B8 DUP2 PUSH2 0x3F8 JUMP JUMPDEST PUSH32 0x638820BBFA7F1AB0BFB9054649B6198DA60BD10654CBFE5C50D26B1BEC65878 DUP2 DUP5 DUP5 PUSH1 0x40 MLOAD PUSH2 0x3EB SWAP4 SWAP3 SWAP2 SWAP1 PUSH2 0xD3C JUMP JUMPDEST PUSH1 0x40 MLOAD DUP1 SWAP2 SUB SWAP1 LOG1 POP POP POP JUMP JUMPDEST CALLER PUSH1 0x3 PUSH1 0x0 DUP4 DUP2 MSTORE PUSH1 0x20 ADD SWAP1 DUP2 MSTORE PUSH1 0x20 ADD PUSH1 0x0 KECCAK256 PUSH1 0x0 PUSH2 0x100 EXP DUP2 SLOAD DUP2 PUSH20 0xFFFFFFFFFFFFFFFFFFFFFFFFFFFFFFFFFFFFFFFF MUL NOT AND SWAP1 DUP4 PUSH20 0xFFFFFFFFFFFFFFFFFFFFFFFFFFFFFFFFFFFFFFFF AND MUL OR SWAP1 SSTORE POP PUSH1 0x4 PUSH1 0x0 CALLER PUSH20 0xFFFFFFFFFFFFFFFFFFFFFFFFFFFFFFFFFFFFFFFF AND PUSH20 0xFFFFFFFFFFFFFFFFFFFFFFFFFFFFFFFFFFFFFFFF AND DUP2 MSTORE PUSH1 0x20 ADD SWAP1 DUP2 MSTORE PUSH1 0x20 ADD PUSH1 0x0 KECCAK256 PUSH1 0x0 DUP2 SLOAD DUP1 SWAP3 SWAP2 SWAP1 PUSH2 0x49A SWAP1 PUSH2 0x92F JUMP JUMPDEST SWAP2 SWAP1 POP SSTORE POP POP JUMP JUMPDEST PUSH1 0x0 PUSH1 0x40 MLOAD SWAP1 POP SWAP1 JUMP JUMPDEST PUSH1 0x0 DUP1 REVERT JUMPDEST PUSH1 0x0 DUP1 REVERT JUMPDEST PUSH1 0x0 PUSH20 0xFFFFFFFFFFFFFFFFFFFFFFFFFFFFFFFFFFFFFFFF DUP3 AND SWAP1 POP SWAP2 SWAP1 POP JUMP JUMPDEST PUSH1 0x0 PUSH2 0x4E1 DUP3 PUSH2 0x4B6 JUMP JUMPDEST SWAP1 POP SWAP2 SWAP1 POP JUMP JUMPDEST PUSH2 0x4F1 DUP2 PUSH2 0x4D6 JUMP JUMPDEST DUP2 EQ PUSH2 0x4FC JUMPI PUSH1 0x0 DUP1 REVERT JUMPDEST POP JUMP JUMPDEST PUSH1 0x0 DUP2 CALLDATALOAD SWAP1 POP PUSH2 0x50E DUP2 PUSH2 0x4E8 JUMP JUMPDEST SWAP3 SWAP2 POP POP JUMP JUMPDEST PUSH1 0x0 PUSH1 0x20 DUP3 DUP5 SUB SLT ISZERO PUSH2 0x52A JUMPI PUSH2 0x529 PUSH2 0x4AC JUMP JUMPDEST JUMPDEST PUSH1 0x0 PUSH2 0x538 DUP5 DUP3 DUP6 ADD PUSH2 0x4FF JUMP JUMPDEST SWAP2 POP POP SWAP3 SWAP2 POP POP JUMP JUMPDEST PUSH1 0x0 DUP2 MLOAD SWAP1 POP SWAP2 SWAP1 POP JUMP JUMPDEST PUSH1 0x0 DUP3 DUP3 MSTORE PUSH1 0x20 DUP3 ADD SWAP1 POP SWAP3 SWAP2 POP POP JUMP JUMPDEST PUSH1 0x0 DUP2 SWAP1 POP PUSH1 0x20 DUP3 ADD SWAP1 POP SWAP2 SWAP1 POP JUMP JUMPDEST PUSH1 0x0 DUP2 SWAP1 POP SWAP2 SWAP1 POP JUMP JUMPDEST PUSH2 0x580 DUP2 PUSH2 0x56D JUMP JUMPDEST DUP3 MSTORE POP POP JUMP JUMPDEST PUSH1 0x0 PUSH2 0x592 DUP4 DUP4 PUSH2 0x577 JUMP JUMPDEST PUSH1 0x20 DUP4 ADD SWAP1 POP SWAP3 SWAP2 POP POP JUMP JUMPDEST PUSH1 0x0 PUSH1 0x20 DUP3 ADD SWAP1 POP SWAP2 SWAP1 POP JUMP JUMPDEST PUSH1 0x0 PUSH2 0x5B6 DUP3 PUSH2 0x541 JUMP JUMPDEST PUSH2 0x5C0 DUP2 DUP6 PUSH2 0x54C JUMP JUMPDEST SWAP4 POP PUSH2 0x5CB DUP4 PUSH2 0x55D JUMP JUMPDEST DUP1 PUSH1 0x0 JUMPDEST DUP4 DUP2 LT ISZERO PUSH2 0x5FC JUMPI DUP2 MLOAD PUSH2 0x5E3 DUP9 DUP3 PUSH2 0x586 JUMP JUMPDEST SWAP8 POP PUSH2 0x5EE DUP4 PUSH2 0x59E JUMP JUMPDEST SWAP3 POP POP PUSH1 0x1 DUP2 ADD SWAP1 POP PUSH2 0x5CF JUMP JUMPDEST POP DUP6 SWAP4 POP POP POP POP SWAP3 SWAP2 POP POP JUMP JUMPDEST PUSH1 0x0 PUSH1 0x20 DUP3 ADD SWAP1 POP DUP2 DUP2 SUB PUSH1 0x0 DUP4 ADD MSTORE PUSH2 0x623 DUP2 DUP5 PUSH2 0x5AB JUMP JUMPDEST SWAP1 POP SWAP3 SWAP2 POP POP JUMP JUMPDEST PUSH2 0x634 DUP2 PUSH2 0x56D JUMP JUMPDEST DUP2 EQ PUSH2 0x63F JUMPI PUSH1 0x0 DUP1 REVERT JUMPDEST POP JUMP JUMPDEST PUSH1 0x0 DUP2 CALLDATALOAD SWAP1 POP PUSH2 0x651 DUP2 PUSH2 0x62B JUMP JUMPDEST SWAP3 SWAP2 POP POP JUMP JUMPDEST PUSH1 0x0 PUSH1 0x20 DUP3 DUP5 SUB SLT ISZERO PUSH2 0x66D JUMPI PUSH2 0x66C PUSH2 0x4AC JUMP JUMPDEST JUMPDEST PUSH1 0x0 PUSH2 0x67B DUP5 DUP3 DUP6 ADD PUSH2 0x642 JUMP JUMPDEST SWAP2 POP POP SWAP3 SWAP2 POP POP JUMP JUMPDEST PUSH1 0x0 DUP2 MLOAD SWAP1 POP SWAP2 SWAP1 POP JUMP JUMPDEST PUSH1 0x0 DUP3 DUP3 MSTORE PUSH1 0x20 DUP3 ADD SWAP1 POP SWAP3 SWAP2 POP POP JUMP JUMPDEST PUSH1 0x0 JUMPDEST DUP4 DUP2 LT ISZERO PUSH2 0x6BE JUMPI DUP1 DUP3 ADD MLOAD DUP2 DUP5 ADD MSTORE PUSH1 0x20 DUP2 ADD SWAP1 POP PUSH2 0x6A3 JUMP JUMPDEST PUSH1 0x0 DUP5 DUP5 ADD MSTORE POP POP POP POP JUMP JUMPDEST PUSH1 0x0 PUSH1 0x1F NOT PUSH1 0x1F DUP4 ADD AND SWAP1 POP SWAP2 SWAP1 POP JUMP JUMPDEST PUSH1 0x0 PUSH2 0x6E6 DUP3 PUSH2 0x684 JUMP JUMPDEST PUSH2 0x6F0 DUP2 DUP6 PUSH2 0x68F JUMP JUMPDEST SWAP4 POP PUSH2 0x700 DUP2 DUP6 PUSH1 0x20 DUP7 ADD PUSH2 0x6A0 JUMP JUMPDEST PUSH2 0x709 DUP2 PUSH2 0x6CA JUMP JUMPDEST DUP5 ADD SWAP2 POP POP SWAP3 SWAP2 POP POP JUMP JUMPDEST PUSH2 0x71D DUP2 PUSH2 0x56D JUMP JUMPDEST DUP3 MSTORE POP POP JUMP JUMPDEST PUSH1 0x0 PUSH1 0x40 DUP3 ADD SWAP1 POP DUP2 DUP2 SUB PUSH1 0x0 DUP4 ADD MSTORE PUSH2 0x73D DUP2 DUP6 PUSH2 0x6DB JUMP JUMPDEST SWAP1 POP PUSH2 0x74C PUSH1 0x20 DUP4 ADD DUP5 PUSH2 0x714 JUMP JUMPDEST SWAP4 SWAP3 POP POP POP JUMP JUMPDEST PUSH1 0x0 DUP1 REVERT JUMPDEST PUSH1 0x0 DUP1 REVERT JUMPDEST PUSH32 0x4E487B7100000000000000000000000000000000000000000000000000000000 PUSH1 0x0 MSTORE PUSH1 0x41 PUSH1 0x4 MSTORE PUSH1 0x24 PUSH1 0x0 REVERT JUMPDEST PUSH2 0x795 DUP3 PUSH2 0x6CA JUMP JUMPDEST DUP2 ADD DUP2 DUP2 LT PUSH8 0xFFFFFFFFFFFFFFFF DUP3 GT OR ISZERO PUSH2 0x7B4 JUMPI PUSH2 0x7B3 PUSH2 0x75D JUMP JUMPDEST JUMPDEST DUP1 PUSH1 0x40 MSTORE POP POP POP JUMP JUMPDEST PUSH1 0x0 PUSH2 0x7C7 PUSH2 0x4A2 JUMP JUMPDEST SWAP1 POP PUSH2 0x7D3 DUP3 DUP3 PUSH2 0x78C JUMP JUMPDEST SWAP2 SWAP1 POP JUMP JUMPDEST PUSH1 0x0 PUSH8 0xFFFFFFFFFFFFFFFF DUP3 GT ISZERO PUSH2 0x7F3 JUMPI PUSH2 0x7F2 PUSH2 0x75D JUMP JUMPDEST JUMPDEST PUSH2 0x7FC DUP3 PUSH2 0x6CA JUMP JUMPDEST SWAP1 POP PUSH1 0x20 DUP2 ADD SWAP1 POP SWAP2 SWAP1 POP JUMP JUMPDEST DUP3 DUP2 DUP4 CALLDATACOPY PUSH1 0x0 DUP4 DUP4 ADD MSTORE POP POP POP JUMP JUMPDEST PUSH1 0x0 PUSH2 0x82B PUSH2 0x826 DUP5 PUSH2 0x7D8 JUMP JUMPDEST PUSH2 0x7BD JUMP JUMPDEST SWAP1 POP DUP3 DUP2 MSTORE PUSH1 0x20 DUP2 ADD DUP5 DUP5 DUP5 ADD GT ISZERO PUSH2 0x847 JUMPI PUSH2 0x846 PUSH2 0x758 JUMP JUMPDEST JUMPDEST PUSH2 0x852 DUP5 DUP3 DUP6 PUSH2 0x809 JUMP JUMPDEST POP SWAP4 SWAP3 POP POP POP JUMP JUMPDEST PUSH1 0x0 DUP3 PUSH1 0x1F DUP4 ADD SLT PUSH2 0x86F JUMPI PUSH2 0x86E PUSH2 0x753 JUMP JUMPDEST JUMPDEST DUP2 CALLDATALOAD PUSH2 0x87F DUP5 DUP3 PUSH1 0x20 DUP7 ADD PUSH2 0x818 JUMP JUMPDEST SWAP2 POP POP SWAP3 SWAP2 POP POP JUMP JUMPDEST PUSH1 0x0 PUSH1 0x20 DUP3 DUP5 SUB SLT ISZERO PUSH2 0x89E JUMPI PUSH2 0x89D PUSH2 0x4AC JUMP JUMPDEST JUMPDEST PUSH1 0x0 DUP3 ADD CALLDATALOAD PUSH8 0xFFFFFFFFFFFFFFFF DUP2 GT ISZERO PUSH2 0x8BC JUMPI PUSH2 0x8BB PUSH2 0x4B1 JUMP JUMPDEST JUMPDEST PUSH2 0x8C8 DUP5 DUP3 DUP6 ADD PUSH2 0x85A JUMP JUMPDEST SWAP2 POP POP SWAP3 SWAP2 POP POP JUMP JUMPDEST PUSH32 0x4E487B7100000000000000000000000000000000000000000000000000000000 PUSH1 0x0 MSTORE PUSH1 0x32 PUSH1 0x4 MSTORE PUSH1 0x24 PUSH1 0x0 REVERT JUMPDEST PUSH32 0x4E487B7100000000000000000000000000000000000000000000000000000000 PUSH1 0x0 MSTORE PUSH1 0x11 PUSH1 0x4 MSTORE PUSH1 0x24 PUSH1 0x0 REVERT JUMPDEST PUSH1 0x0 PUSH2 0x93A DUP3 PUSH2 0x56D JUMP JUMPDEST SWAP2 POP PUSH32 0xFFFFFFFFFFFFFFFFFFFFFFFFFFFFFFFFFFFFFFFFFFFFFFFFFFFFFFFFFFFFFFFF DUP3 SUB PUSH2 0x96C JUMPI PUSH2 0x96B PUSH2 0x900 JUMP JUMPDEST JUMPDEST PUSH1 0x1 DUP3 ADD SWAP1 POP SWAP2 SWAP1 POP JUMP JUMPDEST PUSH32 0x4E487B7100000000000000000000000000000000000000000000000000000000 PUSH1 0x0 MSTORE PUSH1 0x22 PUSH1 0x4 MSTORE PUSH1 0x24 PUSH1 0x0 REVERT JUMPDEST PUSH1 0x0 PUSH1 0x2 DUP3 DIV SWAP1 POP PUSH1 0x1 DUP3 AND DUP1 PUSH2 0x9BE JUMPI PUSH1 0x7F DUP3 AND SWAP2 POP JUMPDEST PUSH1 0x20 DUP3 LT DUP2 SUB PUSH2 0x9D1 JUMPI PUSH2 0x9D0 PUSH2 0x977 JUMP JUMPDEST JUMPDEST POP SWAP2 SWAP1 POP JUMP JUMPDEST PUSH1 0x0 DUP2 SWAP1 POP SWAP3 SWAP2 POP POP JUMP JUMPDEST PUSH1 0x0 PUSH2 0x9ED DUP3 PUSH2 0x684 JUMP JUMPDEST PUSH2 0x9F7 DUP2 DUP6 PUSH2 0x9D7 JUMP JUMPDEST SWAP4 POP PUSH2 0xA07 DUP2 DUP6 PUSH1 0x20 DUP7 ADD PUSH2 0x6A0 JUMP JUMPDEST DUP1 DUP5 ADD SWAP2 POP POP SWAP3 SWAP2 POP POP JUMP JUMPDEST PUSH1 0x0 PUSH2 0xA1F DUP3 DUP5 PUSH2 0x9E2 JUMP JUMPDEST SWAP2 POP DUP2 SWAP1 POP SWAP3 SWAP2 POP POP JUMP JUMPDEST PUSH32 0x4E487B7100000000000000000000000000000000000000000000000000000000 PUSH1 0x0 MSTORE PUSH1 0x12 PUSH1 0x4 MSTORE PUSH1 0x24 PUSH1 0x0 REVERT JUMPDEST PUSH1 0x0 PUSH2 0xA64 DUP3 PUSH2 0x56D JUMP JUMPDEST SWAP2 POP PUSH2 0xA6F DUP4 PUSH2 0x56D JUMP JUMPDEST SWAP3 POP DUP3 PUSH2 0xA7F JUMPI PUSH2 0xA7E PUSH2 0xA2A JUMP JUMPDEST JUMPDEST DUP3 DUP3 MOD SWAP1 POP SWAP3 SWAP2 POP POP JUMP JUMPDEST PUSH1 0x0 DUP2 SWAP1 POP DUP2 PUSH1 0x0 MSTORE PUSH1 0x20 PUSH1 0x0 KECCAK256 SWAP1 POP SWAP2 SWAP1 POP JUMP JUMPDEST PUSH1 0x0 PUSH1 0x20 PUSH1 0x1F DUP4 ADD DIV SWAP1 POP SWAP2 SWAP1 POP JUMP JUMPDEST PUSH1 0x0 DUP3 DUP3 SHL SWAP1 POP SWAP3 SWAP2 POP POP JUMP JUMPDEST PUSH1 0x0 PUSH1 0x8 DUP4 MUL PUSH2 0xAEC PUSH32 0xFFFFFFFFFFFFFFFFFFFFFFFFFFFFFFFFFFFFFFFFFFFFFFFFFFFFFFFFFFFFFFFF DUP3 PUSH2 0xAAF JUMP JUMPDEST PUSH2 0xAF6 DUP7 DUP4 PUSH2 0xAAF JUMP JUMPDEST SWAP6 POP DUP1 NOT DUP5 AND SWAP4 POP DUP1 DUP7 AND DUP5 OR SWAP3 POP POP POP SWAP4 SWAP3 POP POP POP JUMP JUMPDEST PUSH1 0x0 DUP2 SWAP1 POP SWAP2 SWAP1 POP JUMP JUMPDEST PUSH1 0x0 PUSH2 0xB33 PUSH2 0xB2E PUSH2 0xB29 DUP5 PUSH2 0x56D JUMP JUMPDEST PUSH2 0xB0E JUMP JUMPDEST PUSH2 0x56D JUMP JUMPDEST SWAP1 POP SWAP2 SWAP1 POP JUMP JUMPDEST PUSH1 0x0 DUP2 SWAP1 POP SWAP2 SWAP1 POP JUMP JUMPDEST PUSH2 0xB4D DUP4 PUSH2 0xB18 JUMP JUMPDEST PUSH2 0xB61 PUSH2 0xB59 DUP3 PUSH2 0xB3A JUMP JUMPDEST DUP5 DUP5 SLOAD PUSH2 0xABC JUMP JUMPDEST DUP3 SSTORE POP POP POP POP JUMP JUMPDEST PUSH1 0x0 SWAP1 JUMP JUMPDEST PUSH2 0xB76 PUSH2 0xB69 JUMP JUMPDEST PUSH2 0xB81 DUP2 DUP5 DUP5 PUSH2 0xB44 JUMP JUMPDEST POP POP POP JUMP JUMPDEST JUMPDEST DUP2 DUP2 LT ISZERO PUSH2 0xBA5 JUMPI PUSH2 0xB9A PUSH1 0x0 DUP3 PUSH2 0xB6E JUMP JUMPDEST PUSH1 0x1 DUP2 ADD SWAP1 POP PUSH2 0xB87 JUMP JUMPDEST POP POP JUMP JUMPDEST PUSH1 0x1F DUP3 GT ISZERO PUSH2 0xBEA JUMPI PUSH2 0xBBB DUP2 PUSH2 0xA8A JUMP JUMPDEST PUSH2 0xBC4 DUP5 PUSH2 0xA9F JUMP JUMPDEST DUP2 ADD PUSH1 0x20 DUP6 LT ISZERO PUSH2 0xBD3 JUMPI DUP2 SWAP1 POP JUMPDEST PUSH2 0xBE7 PUSH2 0xBDF DUP6 PUSH2 0xA9F JUMP JUMPDEST DUP4 ADD DUP3 PUSH2 0xB86 JUMP JUMPDEST POP POP JUMPDEST POP POP POP JUMP JUMPDEST PUSH1 0x0 DUP3 DUP3 SHR SWAP1 POP SWAP3 SWAP2 POP POP JUMP JUMPDEST PUSH1 0x0 PUSH2 0xC0D PUSH1 0x0 NOT DUP5 PUSH1 0x8 MUL PUSH2 0xBEF JUMP JUMPDEST NOT DUP1 DUP4 AND SWAP2 POP POP SWAP3 SWAP2 POP POP JUMP JUMPDEST PUSH1 0x0 PUSH2 0xC26 DUP4 DUP4 PUSH2 0xBFC JUMP JUMPDEST SWAP2 POP DUP3 PUSH1 0x2 MUL DUP3 OR SWAP1 POP SWAP3 SWAP2 POP POP JUMP JUMPDEST PUSH2 0xC3F DUP3 PUSH2 0x684 JUMP JUMPDEST PUSH8 0xFFFFFFFFFFFFFFFF DUP2 GT ISZERO PUSH2 0xC58 JUMPI PUSH2 0xC57 PUSH2 0x75D JUMP JUMPDEST JUMPDEST PUSH2 0xC62 DUP3 SLOAD PUSH2 0x9A6 JUMP JUMPDEST PUSH2 0xC6D DUP3 DUP3 DUP6 PUSH2 0xBA9 JUMP JUMPDEST PUSH1 0x0 PUSH1 0x20 SWAP1 POP PUSH1 0x1F DUP4 GT PUSH1 0x1 DUP2 EQ PUSH2 0xCA0 JUMPI PUSH1 0x0 DUP5 ISZERO PUSH2 0xC8E JUMPI DUP3 DUP8 ADD MLOAD SWAP1 POP JUMPDEST PUSH2 0xC98 DUP6 DUP3 PUSH2 0xC1A JUMP JUMPDEST DUP7 SSTORE POP PUSH2 0xD00 JUMP JUMPDEST PUSH1 0x1F NOT DUP5 AND PUSH2 0xCAE DUP7 PUSH2 0xA8A JUMP JUMPDEST PUSH1 0x0 JUMPDEST DUP3 DUP2 LT ISZERO PUSH2 0xCD6 JUMPI DUP5 DUP10 ADD MLOAD DUP3 SSTORE PUSH1 0x1 DUP3 ADD SWAP2 POP PUSH1 0x20 DUP6 ADD SWAP5 POP PUSH1 0x20 DUP2 ADD SWAP1 POP PUSH2 0xCB1 JUMP JUMPDEST DUP7 DUP4 LT ISZERO PUSH2 0xCF3 JUMPI DUP5 DUP10 ADD MLOAD PUSH2 0xCEF PUSH1 0x1F DUP10 AND DUP3 PUSH2 0xBFC JUMP JUMPDEST DUP4 SSTORE POP JUMPDEST PUSH1 0x1 PUSH1 0x2 DUP9 MUL ADD DUP9 SSTORE POP POP POP JUMPDEST POP POP POP POP POP POP JUMP JUMPDEST PUSH1 0x0 PUSH2 0xD13 DUP3 PUSH2 0x56D JUMP JUMPDEST SWAP2 POP PUSH2 0xD1E DUP4 PUSH2 0x56D JUMP JUMPDEST SWAP3 POP DUP3 DUP3 SUB SWAP1 POP DUP2 DUP2 GT ISZERO PUSH2 0xD36 JUMPI PUSH2 0xD35 PUSH2 0x900 JUMP JUMPDEST JUMPDEST SWAP3 SWAP2 POP POP JUMP JUMPDEST PUSH1 0x0 PUSH1 0x60 DUP3 ADD SWAP1 POP PUSH2 0xD51 PUSH1 0x0 DUP4 ADD DUP7 PUSH2 0x714 JUMP JUMPDEST DUP2 DUP2 SUB PUSH1 0x20 DUP4 ADD MSTORE PUSH2 0xD63 DUP2 DUP6 PUSH2 0x6DB JUMP JUMPDEST SWAP1 POP PUSH2 0xD72 PUSH1 0x40 DUP4 ADD DUP5 PUSH2 0x714 JUMP JUMPDEST SWAP5 SWAP4 POP POP POP POP JUMP INVALID LOG2 PUSH5 0x6970667358 0x22 SLT KECCAK256 SGT DUP2 OR DUP2 OR PUSH28 0xEE35FF907F25EDC256550A7A220E3CF07091FB2D7D753869F25F6473 PUSH16 0x6C634300081200330000000000000000 "
				},
				"gasEstimates": {
					"creation": {
						"codeDepositCost": "700800",
						"executionCost": "infinite",
						"totalCost": "infinite"
					},
					"external": {
						"crearProductoAleatorio(string)": "infinite",
						"getProductosPorPropietario(address)": "infinite",
						"productos(uint256)": "infinite"
					},
					"internal": {
						"Propiedad(uint256)": "48807",
						"_crearProducto(string memory,uint256)": "infinite",
						"_generarIdAleatorio(string memory)": "infinite"
					}
				},
				"methodIdentifiers": {
					"crearProductoAleatorio(string)": "ae44a105",
					"getProductosPorPropietario(address)": "72380aea",
					"productos(uint256)": "99553636"
				}
			},
			"storageLayout": {
				"storage": [
					{
						"astId": 4,
						"contract": "contracts/FabricaContract.sol:FabricaContract",
						"label": "idDigits",
						"offset": 0,
						"slot": "0",
						"type": "t_uint256"
					},
					{
						"astId": 9,
						"contract": "contracts/FabricaContract.sol:FabricaContract",
						"label": "idModulus",
						"offset": 0,
						"slot": "1",
						"type": "t_uint256"
					},
					{
						"astId": 18,
						"contract": "contracts/FabricaContract.sol:FabricaContract",
						"label": "productos",
						"offset": 0,
						"slot": "2",
						"type": "t_array(t_struct(Producto)14_storage)dyn_storage"
					},
					{
						"astId": 30,
						"contract": "contracts/FabricaContract.sol:FabricaContract",
						"label": "productoAPropietario",
						"offset": 0,
						"slot": "3",
						"type": "t_mapping(t_uint256,t_address)"
					},
					{
						"astId": 34,
						"contract": "contracts/FabricaContract.sol:FabricaContract",
						"label": "propietarioProductos",
						"offset": 0,
						"slot": "4",
						"type": "t_mapping(t_address,t_uint256)"
					}
				],
				"types": {
					"t_address": {
						"encoding": "inplace",
						"label": "address",
						"numberOfBytes": "20"
					},
					"t_array(t_struct(Producto)14_storage)dyn_storage": {
						"base": "t_struct(Producto)14_storage",
						"encoding": "dynamic_array",
						"label": "struct FabricaContract.Producto[]",
						"numberOfBytes": "32"
					},
					"t_mapping(t_address,t_uint256)": {
						"encoding": "mapping",
						"key": "t_address",
						"label": "mapping(address => uint256)",
						"numberOfBytes": "32",
						"value": "t_uint256"
					},
					"t_mapping(t_uint256,t_address)": {
						"encoding": "mapping",
						"key": "t_uint256",
						"label": "mapping(uint256 => address)",
						"numberOfBytes": "32",
						"value": "t_address"
					},
					"t_string_storage": {
						"encoding": "bytes",
						"label": "string",
						"numberOfBytes": "32"
					},
					"t_struct(Producto)14_storage": {
						"encoding": "inplace",
						"label": "struct FabricaContract.Producto",
						"members": [
							{
								"astId": 11,
								"contract": "contracts/FabricaContract.sol:FabricaContract",
								"label": "nombre",
								"offset": 0,
								"slot": "0",
								"type": "t_string_storage"
							},
							{
								"astId": 13,
								"contract": "contracts/FabricaContract.sol:FabricaContract",
								"label": "id",
								"offset": 0,
								"slot": "1",
								"type": "t_uint256"
							}
						],
						"numberOfBytes": "64"
					},
					"t_uint256": {
						"encoding": "inplace",
						"label": "uint256",
						"numberOfBytes": "32"
					}
				}
			},
			"userdoc": {
				"kind": "user",
				"methods": {},
				"version": 1
			}
		}
	}
}